{
  "contractName": "Data",
  "abi": [
    {
      "constant": false,
      "inputs": [],
      "name": "renounceOwnership",
      "outputs": [],
      "payable": false,
      "stateMutability": "nonpayable",
      "type": "function"
    },
    {
      "constant": true,
      "inputs": [
        {
          "name": "",
          "type": "string"
        }
      ],
      "name": "getInfo",
      "outputs": [
        {
          "name": "url",
          "type": "string"
        },
        {
          "name": "questionBody",
          "type": "string"
        },
        {
          "name": "questionTitle",
          "type": "string"
        },
        {
          "name": "questionAuthor",
          "type": "string"
        },
        {
          "name": "questionEditor",
          "type": "string"
        },
        {
          "name": "viewCount",
          "type": "uint256"
        },
        {
          "name": "questionCreationDate",
          "type": "uint256"
        },
        {
          "name": "questionLastModified",
          "type": "uint256"
        },
        {
          "name": "questionLastActivity",
          "type": "uint256"
        }
      ],
      "payable": false,
      "stateMutability": "view",
      "type": "function"
    },
    {
      "constant": true,
      "inputs": [
        {
          "name": "",
          "type": "string"
        }
      ],
      "name": "getCodeSnippet",
      "outputs": [
        {
          "name": "url",
          "type": "string"
        },
        {
          "name": "date",
          "type": "uint256"
        },
        {
          "name": "language",
          "type": "string"
        },
        {
          "name": "projectName",
          "type": "string"
        },
        {
          "name": "companyName",
          "type": "string"
        },
        {
          "name": "projectPath",
          "type": "string"
        },
        {
          "name": "projectAuthor",
          "type": "string"
        }
      ],
      "payable": false,
      "stateMutability": "view",
      "type": "function"
    },
    {
      "constant": true,
      "inputs": [],
      "name": "owner",
      "outputs": [
        {
          "name": "",
          "type": "address"
        }
      ],
      "payable": false,
      "stateMutability": "view",
      "type": "function"
    },
    {
      "constant": true,
      "inputs": [],
      "name": "isOwner",
      "outputs": [
        {
          "name": "",
          "type": "bool"
        }
      ],
      "payable": false,
      "stateMutability": "view",
      "type": "function"
    },
    {
      "constant": false,
      "inputs": [
        {
          "name": "newOwner",
          "type": "address"
        }
      ],
      "name": "transferOwnership",
      "outputs": [],
      "payable": false,
      "stateMutability": "nonpayable",
      "type": "function"
    },
    {
      "anonymous": false,
      "inputs": [
        {
          "indexed": false,
          "name": "_url",
          "type": "string"
        },
        {
          "indexed": false,
          "name": "_newAnswerBody",
          "type": "string"
        },
        {
          "indexed": false,
          "name": "_newAnswerAuthor",
          "type": "string"
        },
        {
          "indexed": false,
          "name": "_newAnswerEditor",
          "type": "string"
        },
        {
          "indexed": false,
          "name": "_newAnswerCreationDate",
          "type": "uint256"
        },
        {
          "indexed": false,
          "name": "_newAnswerLastModified",
          "type": "uint256"
        },
        {
          "indexed": false,
          "name": "_newAnswerLastActivity",
          "type": "uint256"
        }
      ],
      "name": "newAnswerAdded",
      "type": "event"
    },
    {
      "anonymous": false,
      "inputs": [
        {
          "indexed": false,
          "name": "_url",
          "type": "string"
        },
        {
          "indexed": false,
          "name": "_body",
          "type": "string"
        },
        {
          "indexed": false,
          "name": "_title",
          "type": "string"
        },
        {
          "indexed": false,
          "name": "_author",
          "type": "string"
        },
        {
          "indexed": false,
          "name": "_editor",
          "type": "string"
        },
        {
          "indexed": false,
          "name": "viewCount",
          "type": "uint256"
        },
        {
          "indexed": false,
          "name": "_creationDate",
          "type": "uint256"
        },
        {
          "indexed": false,
          "name": "_lastModified",
          "type": "uint256"
        },
        {
          "indexed": false,
          "name": "_lastActivity",
          "type": "uint256"
        }
      ],
      "name": "newQuestionAdded",
      "type": "event"
    },
    {
      "anonymous": false,
      "inputs": [
        {
          "indexed": false,
          "name": "_url",
          "type": "string"
        },
        {
          "indexed": false,
          "name": "_done",
          "type": "bool"
        }
      ],
      "name": "isUpdated",
      "type": "event"
    },
    {
      "anonymous": false,
      "inputs": [
        {
          "indexed": true,
          "name": "previousOwner",
          "type": "address"
        },
        {
          "indexed": true,
          "name": "newOwner",
          "type": "address"
        }
      ],
      "name": "OwnershipTransferred",
      "type": "event"
    },
    {
      "constant": false,
      "inputs": [
        {
          "name": "_url",
          "type": "string"
        },
        {
          "name": "_body",
          "type": "string"
        },
        {
          "name": "_title",
          "type": "string"
        },
        {
          "name": "_author",
          "type": "string"
        },
        {
          "name": "_editor",
          "type": "string"
        },
        {
          "name": "_viewCount",
          "type": "uint256"
        },
        {
          "name": "_creationDate",
          "type": "uint256"
        },
        {
          "name": "_lastModified",
          "type": "uint256"
        },
        {
          "name": "_lastActivity",
          "type": "uint256"
        }
      ],
      "name": "createNewQuestion",
      "outputs": [],
      "payable": false,
      "stateMutability": "nonpayable",
      "type": "function"
    },
    {
      "constant": false,
      "inputs": [
        {
          "name": "_url",
          "type": "string"
        },
        {
          "name": "_newAnswerBody",
          "type": "string"
        },
        {
          "name": "_newAnswerAuthor",
          "type": "string"
        },
        {
          "name": "_newAnswerEditor",
          "type": "string"
        },
        {
          "name": "_newAnswerCreationDate",
          "type": "uint256"
        },
        {
          "name": "_newAnswerLastModified",
          "type": "uint256"
        },
        {
          "name": "_newAnswerLastActivity",
          "type": "uint256"
        }
      ],
      "name": "updateNewAnswer",
      "outputs": [],
      "payable": false,
      "stateMutability": "nonpayable",
      "type": "function"
    },
    {
      "constant": true,
      "inputs": [
        {
          "name": "index",
          "type": "uint256"
        }
      ],
      "name": "getDetailAnswer",
      "outputs": [
        {
          "name": "",
          "type": "string"
        },
        {
          "name": "",
          "type": "string"
        },
        {
          "name": "",
          "type": "string"
        },
        {
          "name": "",
          "type": "string"
        },
        {
          "name": "",
          "type": "bool"
        }
      ],
      "payable": false,
      "stateMutability": "view",
      "type": "function"
    },
    {
      "constant": true,
      "inputs": [
        {
          "name": "index",
          "type": "uint256"
        }
      ],
      "name": "getTimeAnswer",
      "outputs": [
        {
          "name": "",
          "type": "uint256"
        },
        {
          "name": "",
          "type": "uint256"
        },
        {
          "name": "",
          "type": "uint256"
        }
      ],
      "payable": false,
      "stateMutability": "view",
      "type": "function"
    },
    {
      "constant": true,
      "inputs": [
        {
          "name": "index",
          "type": "uint256"
        }
      ],
      "name": "getDetailQuestion",
      "outputs": [
        {
          "name": "",
          "type": "string"
        },
        {
          "name": "",
          "type": "string"
        },
        {
          "name": "",
          "type": "string"
        },
        {
          "name": "",
          "type": "string"
        },
        {
          "name": "",
          "type": "string"
        },
        {
          "name": "",
          "type": "uint256"
        }
      ],
      "payable": false,
      "stateMutability": "view",
      "type": "function"
    },
    {
      "constant": true,
      "inputs": [
        {
          "name": "index",
          "type": "uint256"
        }
      ],
      "name": "getTimeQuestion",
      "outputs": [
        {
          "name": "",
          "type": "uint256"
        },
        {
          "name": "",
          "type": "uint256"
        },
        {
          "name": "",
          "type": "uint256"
        }
      ],
      "payable": false,
      "stateMutability": "view",
      "type": "function"
    }
  ],
  "bytecode": "0x6080604052336000806101000a81548173ffffffffffffffffffffffffffffffffffffffff021916908373ffffffffffffffffffffffffffffffffffffffff1602179055506000809054906101000a900473ffffffffffffffffffffffffffffffffffffffff1673ffffffffffffffffffffffffffffffffffffffff16600073ffffffffffffffffffffffffffffffffffffffff167f8be0079c531659141344cd1fd0a4f28419497f9722a3daafe3b4186f6b6457e060405160405180910390a3612e4b806100cf6000396000f3fe608060405234801561001057600080fd5b50600436106100b35760003560e01c80638f32d59b116100715780638f32d59b14610a11578063c79d77fb14610a33578063d08c609f14610d73578063ed05bfe214610f69578063f2fde38b14611207578063fd3979161461124b576100b3565b8062b560b9146100b857806330041b0614610316578063715018a6146103665780637ee005ab146103705780638800b396146106705780638da5cb5b146109c7575b600080fd5b6100e4600480360360208110156100ce57600080fd5b810190808035906020019092919050505061129b565b60405180806020018060200180602001806020018060200187815260200186810386528c818151815260200191508051906020019080838360005b8381101561013a57808201518184015260208101905061011f565b50505050905090810190601f1680156101675780820380516001836020036101000a031916815260200191505b5086810385528b818151815260200191508051906020019080838360005b838110156101a0578082015181840152602081019050610185565b50505050905090810190601f1680156101cd5780820380516001836020036101000a031916815260200191505b5086810384528a818151815260200191508051906020019080838360005b838110156102065780820151818401526020810190506101eb565b50505050905090810190601f1680156102335780820380516001836020036101000a031916815260200191505b50868103835289818151815260200191508051906020019080838360005b8381101561026c578082015181840152602081019050610251565b50505050905090810190601f1680156102995780820380516001836020036101000a031916815260200191505b50868103825288818151815260200191508051906020019080838360005b838110156102d25780820151818401526020810190506102b7565b50505050905090810190601f1680156102ff5780820380516001836020036101000a031916815260200191505b509b50505050505050505050505060405180910390f35b6103426004803603602081101561032c57600080fd5b810190808035906020019092919050505061167b565b60405180848152602001838152602001828152602001935050505060405180910390f35b61036e6116ea565b005b6104296004803603602081101561038657600080fd5b81019080803590602001906401000000008111156103a357600080fd5b8201836020820111156103b557600080fd5b803590602001918460018302840111640100000000831117156103d757600080fd5b91908080601f016020809104026020016040519081016040528093929190818152602001838380828437600081840152601f19601f8201169050808301925050505050505091929192905050506117ba565b6040518080602001806020018060200180602001806020018a815260200189815260200188815260200187815260200186810386528f818151815260200191508051906020019080838360005b83811015610491578082015181840152602081019050610476565b50505050905090810190601f1680156104be5780820380516001836020036101000a031916815260200191505b5086810385528e818151815260200191508051906020019080838360005b838110156104f75780820151818401526020810190506104dc565b50505050905090810190601f1680156105245780820380516001836020036101000a031916815260200191505b5086810384528d818151815260200191508051906020019080838360005b8381101561055d578082015181840152602081019050610542565b50505050905090810190601f16801561058a5780820380516001836020036101000a031916815260200191505b5086810383528c818151815260200191508051906020019080838360005b838110156105c35780820151818401526020810190506105a8565b50505050905090810190601f1680156105f05780820380516001836020036101000a031916815260200191505b5086810382528b818151815260200191508051906020019080838360005b8381101561062957808201518184015260208101905061060e565b50505050905090810190601f1680156106565780820380516001836020036101000a031916815260200191505b509e50505050505050505050505050505060405180910390f35b6107296004803603602081101561068657600080fd5b81019080803590602001906401000000008111156106a357600080fd5b8201836020820111156106b557600080fd5b803590602001918460018302840111640100000000831117156106d757600080fd5b91908080601f016020809104026020016040519081016040528093929190818152602001838380828437600081840152601f19601f820116905080830192505050505050509192919290505050611b16565b6040518080602001888152602001806020018060200180602001806020018060200187810387528e818151815260200191508051906020019080838360005b83811015610783578082015181840152602081019050610768565b50505050905090810190601f1680156107b05780820380516001836020036101000a031916815260200191505b5087810386528c818151815260200191508051906020019080838360005b838110156107e95780820151818401526020810190506107ce565b50505050905090810190601f1680156108165780820380516001836020036101000a031916815260200191505b5087810385528b818151815260200191508051906020019080838360005b8381101561084f578082015181840152602081019050610834565b50505050905090810190601f16801561087c5780820380516001836020036101000a031916815260200191505b5087810384528a818151815260200191508051906020019080838360005b838110156108b557808201518184015260208101905061089a565b50505050905090810190601f1680156108e25780820380516001836020036101000a031916815260200191505b50878103835289818151815260200191508051906020019080838360005b8381101561091b578082015181840152602081019050610900565b50505050905090810190601f1680156109485780820380516001836020036101000a031916815260200191505b50878103825288818151815260200191508051906020019080838360005b83811015610981578082015181840152602081019050610966565b50505050905090810190601f1680156109ae5780820380516001836020036101000a031916815260200191505b509d505050505050505050505050505060405180910390f35b6109cf611efe565b604051808273ffffffffffffffffffffffffffffffffffffffff1673ffffffffffffffffffffffffffffffffffffffff16815260200191505060405180910390f35b610a19611f27565b604051808215151515815260200191505060405180910390f35b610d716004803603610120811015610a4a57600080fd5b8101908080359060200190640100000000811115610a6757600080fd5b820183602082011115610a7957600080fd5b80359060200191846001830284011164010000000083111715610a9b57600080fd5b91908080601f016020809104026020016040519081016040528093929190818152602001838380828437600081840152601f19601f82011690508083019250505050505050919291929080359060200190640100000000811115610afe57600080fd5b820183602082011115610b1057600080fd5b80359060200191846001830284011164010000000083111715610b3257600080fd5b91908080601f016020809104026020016040519081016040528093929190818152602001838380828437600081840152601f19601f82011690508083019250505050505050919291929080359060200190640100000000811115610b9557600080fd5b820183602082011115610ba757600080fd5b80359060200191846001830284011164010000000083111715610bc957600080fd5b91908080601f016020809104026020016040519081016040528093929190818152602001838380828437600081840152601f19601f82011690508083019250505050505050919291929080359060200190640100000000811115610c2c57600080fd5b820183602082011115610c3e57600080fd5b80359060200191846001830284011164010000000083111715610c6057600080fd5b91908080601f016020809104026020016040519081016040528093929190818152602001838380828437600081840152601f19601f82011690508083019250505050505050919291929080359060200190640100000000811115610cc357600080fd5b820183602082011115610cd557600080fd5b80359060200191846001830284011164010000000083111715610cf757600080fd5b91908080601f016020809104026020016040519081016040528093929190818152602001838380828437600081840152601f19601f82011690508083019250505050505050919291929080359060200190929190803590602001909291908035906020019092919080359060200190929190505050611f7e565b005b610d9f60048036036020811015610d8957600080fd5b8101908080359060200190929190505050612354565b60405180806020018060200180602001806020018615151515815260200185810385528a818151815260200191508051906020019080838360005b83811015610df5578082015181840152602081019050610dda565b50505050905090810190601f168015610e225780820380516001836020036101000a031916815260200191505b50858103845289818151815260200191508051906020019080838360005b83811015610e5b578082015181840152602081019050610e40565b50505050905090810190601f168015610e885780820380516001836020036101000a031916815260200191505b50858103835288818151815260200191508051906020019080838360005b83811015610ec1578082015181840152602081019050610ea6565b50505050905090810190601f168015610eee5780820380516001836020036101000a031916815260200191505b50858103825287818151815260200191508051906020019080838360005b83811015610f27578082015181840152602081019050610f0c565b50505050905090810190601f168015610f545780820380516001836020036101000a031916815260200191505b50995050505050505050505060405180910390f35b611205600480360360e0811015610f7f57600080fd5b8101908080359060200190640100000000811115610f9c57600080fd5b820183602082011115610fae57600080fd5b80359060200191846001830284011164010000000083111715610fd057600080fd5b91908080601f016020809104026020016040519081016040528093929190818152602001838380828437600081840152601f19601f8201169050808301925050505050505091929192908035906020019064010000000081111561103357600080fd5b82018360208201111561104557600080fd5b8035906020019184600183028401116401000000008311171561106757600080fd5b91908080601f016020809104026020016040519081016040528093929190818152602001838380828437600081840152601f19601f820116905080830192505050505050509192919290803590602001906401000000008111156110ca57600080fd5b8201836020820111156110dc57600080fd5b803590602001918460018302840111640100000000831117156110fe57600080fd5b91908080601f016020809104026020016040519081016040528093929190818152602001838380828437600081840152601f19601f8201169050808301925050505050505091929192908035906020019064010000000081111561116157600080fd5b82018360208201111561117357600080fd5b8035906020019184600183028401116401000000008311171561119557600080fd5b91908080601f016020809104026020016040519081016040528093929190818152602001838380828437600081840152601f19601f820116905080830192505050505050509192919290803590602001909291908035906020019092919080359060200190929190505050612683565b005b6112496004803603602081101561121d57600080fd5b81019080803573ffffffffffffffffffffffffffffffffffffffff169060200190929190505050612b63565b005b6112776004803603602081101561126157600080fd5b8101908080359060200190929190505050612b80565b60405180848152602001838152602001828152602001935050505060405180910390f35b60608060608060606000600187815481106112b257fe5b9060005260206000209060090201600001600188815481106112d057fe5b9060005260206000209060090201600101600189815481106112ee57fe5b906000526020600020906009020160020160018a8154811061130c57fe5b906000526020600020906009020160030160018b8154811061132a57fe5b906000526020600020906009020160040160018c8154811061134857fe5b906000526020600020906009020160050154858054600181600116156101000203166002900480601f0160208091040260200160405190810160405280929190818152602001828054600181600116156101000203166002900480156113ef5780601f106113c4576101008083540402835291602001916113ef565b820191906000526020600020905b8154815290600101906020018083116113d257829003601f168201915b50505050509550848054600181600116156101000203166002900480601f01602080910402602001604051908101604052809291908181526020018280546001816001161561010002031660029004801561148b5780601f106114605761010080835404028352916020019161148b565b820191906000526020600020905b81548152906001019060200180831161146e57829003601f168201915b50505050509450838054600181600116156101000203166002900480601f0160208091040260200160405190810160405280929190818152602001828054600181600116156101000203166002900480156115275780601f106114fc57610100808354040283529160200191611527565b820191906000526020600020905b81548152906001019060200180831161150a57829003601f168201915b50505050509350828054600181600116156101000203166002900480601f0160208091040260200160405190810160405280929190818152602001828054600181600116156101000203166002900480156115c35780601f10611598576101008083540402835291602001916115c3565b820191906000526020600020905b8154815290600101906020018083116115a657829003601f168201915b50505050509250818054600181600116156101000203166002900480601f01602080910402602001604051908101604052809291908181526020018280546001816001161561010002031660029004801561165f5780601f106116345761010080835404028352916020019161165f565b820191906000526020600020905b81548152906001019060200180831161164257829003601f168201915b5050505050915095509550955095509550955091939550919395565b60008060006002848154811061168d57fe5b906000526020600020906008020160050154600285815481106116ac57fe5b906000526020600020906008020160060154600286815481106116cb57fe5b9060005260206000209060080201600701549250925092509193909250565b6116f2611f27565b6116fb57600080fd5b600073ffffffffffffffffffffffffffffffffffffffff166000809054906101000a900473ffffffffffffffffffffffffffffffffffffffff1673ffffffffffffffffffffffffffffffffffffffff167f8be0079c531659141344cd1fd0a4f28419497f9722a3daafe3b4186f6b6457e060405160405180910390a360008060006101000a81548173ffffffffffffffffffffffffffffffffffffffff021916908373ffffffffffffffffffffffffffffffffffffffff160217905550565b600581805160208101820180518482526020830160208501208183528095505050505050600091509050806000018054600181600116156101000203166002900480601f01602080910402602001604051908101604052809291908181526020018280546001816001161561010002031660029004801561187c5780601f106118515761010080835404028352916020019161187c565b820191906000526020600020905b81548152906001019060200180831161185f57829003601f168201915b505050505090806001018054600181600116156101000203166002900480601f01602080910402602001604051908101604052809291908181526020018280546001816001161561010002031660029004801561191a5780601f106118ef5761010080835404028352916020019161191a565b820191906000526020600020905b8154815290600101906020018083116118fd57829003601f168201915b505050505090806002018054600181600116156101000203166002900480601f0160208091040260200160405190810160405280929190818152602001828054600181600116156101000203166002900480156119b85780601f1061198d576101008083540402835291602001916119b8565b820191906000526020600020905b81548152906001019060200180831161199b57829003601f168201915b505050505090806003018054600181600116156101000203166002900480601f016020809104026020016040519081016040528092919081815260200182805460018160011615610100020316600290048015611a565780601f10611a2b57610100808354040283529160200191611a56565b820191906000526020600020905b815481529060010190602001808311611a3957829003601f168201915b505050505090806004018054600181600116156101000203166002900480601f016020809104026020016040519081016040528092919081815260200182805460018160011615610100020316600290048015611af45780601f10611ac957610100808354040283529160200191611af4565b820191906000526020600020905b815481529060010190602001808311611ad757829003601f168201915b5050505050908060050154908060060154908060070154908060080154905089565b600481805160208101820180518482526020830160208501208183528095505050505050600091509050806000018054600181600116156101000203166002900480601f016020809104026020016040519081016040528092919081815260200182805460018160011615610100020316600290048015611bd85780601f10611bad57610100808354040283529160200191611bd8565b820191906000526020600020905b815481529060010190602001808311611bbb57829003601f168201915b505050505090806001015490806002018054600181600116156101000203166002900480601f016020809104026020016040519081016040528092919081815260200182805460018160011615610100020316600290048015611c7c5780601f10611c5157610100808354040283529160200191611c7c565b820191906000526020600020905b815481529060010190602001808311611c5f57829003601f168201915b505050505090806003018054600181600116156101000203166002900480601f016020809104026020016040519081016040528092919081815260200182805460018160011615610100020316600290048015611d1a5780601f10611cef57610100808354040283529160200191611d1a565b820191906000526020600020905b815481529060010190602001808311611cfd57829003601f168201915b505050505090806004018054600181600116156101000203166002900480601f016020809104026020016040519081016040528092919081815260200182805460018160011615610100020316600290048015611db85780601f10611d8d57610100808354040283529160200191611db8565b820191906000526020600020905b815481529060010190602001808311611d9b57829003601f168201915b505050505090806005018054600181600116156101000203166002900480601f016020809104026020016040519081016040528092919081815260200182805460018160011615610100020316600290048015611e565780601f10611e2b57610100808354040283529160200191611e56565b820191906000526020600020905b815481529060010190602001808311611e3957829003601f168201915b505050505090806006018054600181600116156101000203166002900480601f016020809104026020016040519081016040528092919081815260200182805460018160011615610100020316600290048015611ef45780601f10611ec957610100808354040283529160200191611ef4565b820191906000526020600020905b815481529060010190602001808311611ed757829003601f168201915b5050505050905087565b60008060009054906101000a900473ffffffffffffffffffffffffffffffffffffffff16905090565b60008060009054906101000a900473ffffffffffffffffffffffffffffffffffffffff1673ffffffffffffffffffffffffffffffffffffffff163373ffffffffffffffffffffffffffffffffffffffff1614905090565b611f86612ce7565b6040518061012001604052808b81526020018a8152602001898152602001888152602001878152602001868152602001858152602001848152602001838152509050600181908060018154018082558091505090600182039060005260206000209060090201600090919290919091506000820151816000019080519060200190612012929190612d33565b50602082015181600101908051906020019061202f929190612d33565b50604082015181600201908051906020019061204c929190612d33565b506060820151816003019080519060200190612069929190612d33565b506080820151816004019080519060200190612086929190612d33565b5060a0820151816005015560c0820151816006015560e0820151816007015561010082015181600801555050507f2d39a06d7efb504e9c4f44282c66425720210788d3041e23bdbf6ca253fde4de816000015182602001518360400151846060015185608001518660a001518760c001518860e001518961010001516040518080602001806020018060200180602001806020018a815260200189815260200188815260200187815260200186810386528f818151815260200191508051906020019080838360005b8381101561216a57808201518184015260208101905061214f565b50505050905090810190601f1680156121975780820380516001836020036101000a031916815260200191505b5086810385528e818151815260200191508051906020019080838360005b838110156121d05780820151818401526020810190506121b5565b50505050905090810190601f1680156121fd5780820380516001836020036101000a031916815260200191505b5086810384528d818151815260200191508051906020019080838360005b8381101561223657808201518184015260208101905061221b565b50505050905090810190601f1680156122635780820380516001836020036101000a031916815260200191505b5086810383528c818151815260200191508051906020019080838360005b8381101561229c578082015181840152602081019050612281565b50505050905090810190601f1680156122c95780820380516001836020036101000a031916815260200191505b5086810382528b818151815260200191508051906020019080838360005b838110156123025780820151818401526020810190506122e7565b50505050905090810190601f16801561232f5780820380516001836020036101000a031916815260200191505b509e50505050505050505050505050505060405180910390a150505050505050505050565b60608060608060006002868154811061236957fe5b90600052602060002090600802016000016002878154811061238757fe5b9060005260206000209060080201600101600288815481106123a557fe5b9060005260206000209060080201600201600289815481106123c357fe5b906000526020600020906008020160030160028a815481106123e157fe5b906000526020600020906008020160040160009054906101000a900460ff16848054600181600116156101000203166002900480601f0160208091040260200160405190810160405280929190818152602001828054600181600116156101000203166002900480156124955780601f1061246a57610100808354040283529160200191612495565b820191906000526020600020905b81548152906001019060200180831161247857829003601f168201915b50505050509450838054600181600116156101000203166002900480601f0160208091040260200160405190810160405280929190818152602001828054600181600116156101000203166002900480156125315780601f1061250657610100808354040283529160200191612531565b820191906000526020600020905b81548152906001019060200180831161251457829003601f168201915b50505050509350828054600181600116156101000203166002900480601f0160208091040260200160405190810160405280929190818152602001828054600181600116156101000203166002900480156125cd5780601f106125a2576101008083540402835291602001916125cd565b820191906000526020600020905b8154815290600101906020018083116125b057829003601f168201915b50505050509250818054600181600116156101000203166002900480601f0160208091040260200160405190810160405280929190818152602001828054600181600116156101000203166002900480156126695780601f1061263e57610100808354040283529160200191612669565b820191906000526020600020905b81548152906001019060200180831161264c57829003601f168201915b505050505091509450945094509450945091939590929450565b61268b611f27565b61269457600080fd5b61269c612db3565b6003886040518082805190602001908083835b602083106126d257805182526020820191506020810190506020830392506126af565b6001836020036101000a038019825116818451168082178552505050505050905001915050908152602001604051809103902060405180610100016040529081600082018054600181600116156101000203166002900480601f0160208091040260200160405190810160405280929190818152602001828054600181600116156101000203166002900480156127aa5780601f1061277f576101008083540402835291602001916127aa565b820191906000526020600020905b81548152906001019060200180831161278d57829003601f168201915b50505050508152602001600182018054600181600116156101000203166002900480601f01602080910402602001604051908101604052809291908181526020018280546001816001161561010002031660029004801561284c5780601f106128215761010080835404028352916020019161284c565b820191906000526020600020905b81548152906001019060200180831161282f57829003601f168201915b50505050508152602001600282018054600181600116156101000203166002900480601f0160208091040260200160405190810160405280929190818152602001828054600181600116156101000203166002900480156128ee5780601f106128c3576101008083540402835291602001916128ee565b820191906000526020600020905b8154815290600101906020018083116128d157829003601f168201915b50505050508152602001600382018054600181600116156101000203166002900480601f0160208091040260200160405190810160405280929190818152602001828054600181600116156101000203166002900480156129905780601f1061296557610100808354040283529160200191612990565b820191906000526020600020905b81548152906001019060200180831161297357829003601f168201915b505050505081526020016004820160009054906101000a900460ff1615151515815260200160058201548152602001600682015481526020016007820154815250509050806080015115612a36578781600001819052508681602001819052508581604001819052508481606001819052506001816080019015159081151581525050838160a0018181525050828160c0018181525050818160e0018181525050612b59565b604051806101000160405280898152602001888152602001878152602001868152602001600115158152602001858152602001848152602001838152509050600281908060018154018082558091505090600182039060005260206000209060080201600090919290919091506000820151816000019080519060200190612abf929190612d33565b506020820151816001019080519060200190612adc929190612d33565b506040820151816002019080519060200190612af9929190612d33565b506060820151816003019080519060200190612b16929190612d33565b5060808201518160040160006101000a81548160ff02191690831515021790555060a0820151816005015560c0820151816006015560e082015181600701555050505b5050505050505050565b612b6b611f27565b612b7457600080fd5b612b7d81612bef565b50565b600080600060018481548110612b9257fe5b90600052602060002090600902016006015460018581548110612bb157fe5b90600052602060002090600902016007015460018681548110612bd057fe5b9060005260206000209060090201600801549250925092509193909250565b600073ffffffffffffffffffffffffffffffffffffffff168173ffffffffffffffffffffffffffffffffffffffff161415612c2957600080fd5b8073ffffffffffffffffffffffffffffffffffffffff166000809054906101000a900473ffffffffffffffffffffffffffffffffffffffff1673ffffffffffffffffffffffffffffffffffffffff167f8be0079c531659141344cd1fd0a4f28419497f9722a3daafe3b4186f6b6457e060405160405180910390a3806000806101000a81548173ffffffffffffffffffffffffffffffffffffffff021916908373ffffffffffffffffffffffffffffffffffffffff16021790555050565b6040518061012001604052806060815260200160608152602001606081526020016060815260200160608152602001600081526020016000815260200160008152602001600081525090565b828054600181600116156101000203166002900490600052602060002090601f016020900481019282601f10612d7457805160ff1916838001178555612da2565b82800160010185558215612da2579182015b82811115612da1578251825591602001919060010190612d86565b5b509050612daf9190612dfa565b5090565b604051806101000160405280606081526020016060815260200160608152602001606081526020016000151581526020016000815260200160008152602001600081525090565b612e1c91905b80821115612e18576000816000905550600101612e00565b5090565b9056fea165627a7a72305820ce20f09f302426a241392b0a3e855e6ab4b73ce5cd64c833baf0ebaaf33232ed0029",
  "source": "pragma solidity >=0.4.0 <0.7.0;\r\n// pragma experimental ABIEncoderV2;\r\nimport \"./Ownable.sol\";\r\n\r\ncontract Data is Ownable {\r\n\r\n    \r\n    event newAnswerAdded(string _url, string _newAnswerBody, string _newAnswerAuthor,\r\n    string _newAnswerEditor, uint _newAnswerCreationDate, uint _newAnswerLastModified,\r\n    uint _newAnswerLastActivity);\r\n\r\n    event newQuestionAdded(string _url, string _body, string _title, string _author, string _editor,\r\n    uint viewCount, uint _creationDate, uint _lastModified, uint _lastActivity);\r\n\r\n    event isUpdated(string _url, bool _done);\r\n\r\n    //variables\r\n    StackOverflowInfo[] info;\r\n    Answer[] answers;\r\n    mapping (string => Answer) getAnswers;\r\n    mapping (string => CodeSnippet) public getCodeSnippet;\r\n    mapping (string => StackOverflowInfo) public getInfo;\r\n    // mapping (string => address) public addressQuestioner;\r\n    // address[] private person;\r\n\r\n    // function user() {\r\n    //     owner = msg.sender;\r\n    // }\r\n\r\n    struct StackOverflowInfo {\r\n        string url;\r\n        string questionBody;\r\n        string questionTitle;\r\n        string questionAuthor;\r\n        string questionEditor;\r\n        uint viewCount;\r\n        uint questionCreationDate;\r\n        uint questionLastModified;\r\n        uint questionLastActivity;\r\n    }\r\n\r\n    struct CodeSnippet {\r\n        string url;\r\n        uint date;\r\n        string language;\r\n        string projectName;\r\n        string companyName;\r\n        string projectPath;\r\n        string projectAuthor;\r\n    }\r\n\r\n    struct Answer {\r\n        string url;\r\n        string answerBody;\r\n        string answerAuthor;\r\n        string answerEditor;\r\n        bool isValue;\r\n        uint answerCreationDate;\r\n        uint answerLastModified;\r\n        uint answerLastActivity;\r\n    }\r\n\r\n    // create a new question\r\n    function createNewQuestion(string memory _url, string memory _body, string memory _title,\r\n    string memory _author, string memory _editor, uint _viewCount, uint _creationDate,\r\n    uint _lastModified, uint _lastActivity) public {\r\n\r\n        // addressQuestioner[_url] = msg.sender;\r\n        \r\n        StackOverflowInfo memory newInfo = StackOverflowInfo(_url, _body, _title, _author, _editor,\r\n        _viewCount, _creationDate, _lastModified, _lastActivity);\r\n        \r\n        info.push(newInfo);\r\n\r\n        emit newQuestionAdded(newInfo.url, newInfo.questionBody, newInfo.questionTitle,\r\n        newInfo.questionAuthor, newInfo.questionEditor, newInfo.viewCount,\r\n        newInfo.questionCreationDate, newInfo.questionLastModified, newInfo.questionLastActivity);\r\n    }\r\n\r\n    // function codeRelated() private {\r\n\r\n    // }\r\n\r\n    // update new answer\r\n    // link with url from mapping\r\n    // TO DO check owner!\r\n    // TO Do set to private\r\n    function updateNewAnswer(string memory _url, string memory _newAnswerBody,\r\n    string memory _newAnswerAuthor, string memory _newAnswerEditor, uint _newAnswerCreationDate,\r\n    uint _newAnswerLastModified, uint  _newAnswerLastActivity) public onlyOwner {\r\n\r\n        Answer memory answer = getAnswers[_url];\r\n        if(answer.isValue){\r\n            answer.url = _url;\r\n            answer.answerBody = _newAnswerBody;\r\n            answer.answerAuthor = _newAnswerAuthor;\r\n            answer.answerEditor = _newAnswerEditor;\r\n            answer.isValue = true;\r\n            answer.answerCreationDate = _newAnswerCreationDate;\r\n            answer.answerLastModified = _newAnswerLastModified;\r\n            answer.answerLastActivity = _newAnswerLastActivity;\r\n        }\r\n        else{\r\n            answer = Answer(_url,\r\n                            _newAnswerBody,\r\n                            _newAnswerAuthor,\r\n                            _newAnswerEditor,\r\n                            true,\r\n                            _newAnswerCreationDate,\r\n                            _newAnswerLastModified,\r\n                            _newAnswerLastActivity);\r\n            answers.push(answer);\r\n        }\r\n\r\n        // emit newAnswerAdded(answer.url, answer.answerBody, answer.answerAuthor,\r\n        // answer.answerEditor, answer.answerCreationDate, answer.answerLastModified,\r\n        // answer.answerLastActivity);\r\n    }\r\n\r\n    function getDetailAnswer(uint index) public view returns (string memory, string memory, string memory,\r\n    string memory, bool) {\r\n        \r\n        return (answers[index].url,\r\n                answers[index].answerBody,\r\n                answers[index].answerAuthor,\r\n                answers[index].answerEditor,\r\n                answers[index].isValue);\r\n    }\r\n\r\n    function getTimeAnswer(uint index) public view returns (uint, uint, uint) {\r\n        return (answers[index].answerCreationDate,\r\n               answers[index].answerLastModified,\r\n               answers[index].answerLastActivity);\r\n    }\r\n\r\n    function getDetailQuestion(uint index) public view returns (string memory, string memory, string memory,\r\n    string memory, string memory, uint) {\r\n        return (info[index].url,\r\n                info[index].questionBody,\r\n                info[index].questionTitle,\r\n                info[index].questionAuthor,\r\n                info[index].questionEditor,\r\n                info[index].viewCount);\r\n    }\r\n\r\n    function getTimeQuestion(uint index) public view returns (uint, uint, uint) {\r\n        return (info[index].questionCreationDate,\r\n                info[index].questionLastModified,\r\n                info[index].questionLastActivity);\r\n    }\r\n\r\n}",
  "sourcePath": "C:/Users/asus/Desktop/AnswerNotification/contracts/Data.sol",
  "compiler": {
    "name": "solc",
    "version": "0.5.8+commit.23d335f2.Emscripten.clang"
  },
  "schemaVersion": "3.0.10",
  "updatedAt": "2019-06-27T08:26:39.038Z",
  "devdoc": {
    "methods": {
      "isOwner()": {
        "return": "true if `msg.sender` is the owner of the contract.\r"
      },
      "owner()": {
        "return": "the address of the owner.\r"
      },
      "renounceOwnership()": {
        "details": "Allows the current owner to relinquish control of the contract.\r"
      },
      "transferOwnership(address)": {
        "details": "Allows the current owner to transfer control of the contract to a newOwner.\r",
        "params": {
          "newOwner": "The address to transfer ownership to.\r"
        }
      }
    }
  },
  "userdoc": {
    "methods": {
      "renounceOwnership()": {
        "notice": "Renouncing to ownership will leave the contract without an owner.\r It will not be possible to call the functions with the `onlyOwner`\r modifier anymore.\r"
      }
    }
  }
}