{
  "contractName": "Data",
  "abi": [
    {
      "constant": true,
      "inputs": [
        {
          "name": "",
          "type": "string"
        }
      ],
      "name": "getAnswers",
      "outputs": [
        {
          "name": "url",
          "type": "string"
        },
        {
          "name": "answerBody",
          "type": "string"
        },
        {
          "name": "answerAuthor",
          "type": "string"
        },
        {
          "name": "answerEditor",
          "type": "string"
        },
        {
          "name": "isValue",
          "type": "bool"
        },
        {
          "name": "answerCreationDate",
          "type": "uint256"
        },
        {
          "name": "answerLastModified",
          "type": "uint256"
        },
        {
          "name": "answerLastActivity",
          "type": "uint256"
        }
      ],
      "payable": false,
      "stateMutability": "view",
      "type": "function"
    },
    {
      "constant": true,
      "inputs": [
        {
          "name": "",
          "type": "string"
        }
      ],
      "name": "getInfo",
      "outputs": [
        {
          "name": "url",
          "type": "string"
        },
        {
          "name": "questionTitle",
          "type": "string"
        },
        {
          "name": "viewCount",
          "type": "uint256"
        },
        {
          "name": "questionAuthor",
          "type": "string"
        },
        {
          "name": "questionEditor",
          "type": "string"
        },
        {
          "name": "questionCreationDate",
          "type": "uint256"
        },
        {
          "name": "questionLastActivity",
          "type": "uint256"
        },
        {
          "name": "questionLastModified",
          "type": "uint256"
        }
      ],
      "payable": false,
      "stateMutability": "view",
      "type": "function"
    },
    {
      "constant": true,
      "inputs": [
        {
          "name": "",
          "type": "string"
        },
        {
          "name": "",
          "type": "uint256"
        }
      ],
      "name": "getCodeSnippet",
      "outputs": [
        {
          "name": "url",
          "type": "string"
        },
        {
          "name": "date",
          "type": "string"
        },
        {
          "name": "language",
          "type": "string"
        },
        {
          "name": "projectName",
          "type": "string"
        },
        {
          "name": "companyName",
          "type": "string"
        },
        {
          "name": "projectPath",
          "type": "string"
        },
        {
          "name": "projectAuthor",
          "type": "string"
        }
      ],
      "payable": false,
      "stateMutability": "view",
      "type": "function"
    },
    {
      "anonymous": false,
      "inputs": [
        {
          "indexed": false,
          "name": "_url",
          "type": "string"
        },
        {
          "indexed": false,
          "name": "_newAnswerBody",
          "type": "string"
        },
        {
          "indexed": false,
          "name": "_newAnswerAuthor",
          "type": "string"
        },
        {
          "indexed": false,
          "name": "_newAnswerEditor",
          "type": "string"
        },
        {
          "indexed": false,
          "name": "_newAnswerCreationDate",
          "type": "uint256"
        },
        {
          "indexed": false,
          "name": "_newAnswerLastModified",
          "type": "uint256"
        },
        {
          "indexed": false,
          "name": "_newAnswerLastActivity",
          "type": "uint256"
        }
      ],
      "name": "newAnswerAdded",
      "type": "event"
    },
    {
      "anonymous": false,
      "inputs": [
        {
          "indexed": false,
          "name": "_url",
          "type": "string"
        },
        {
          "indexed": false,
          "name": "_title",
          "type": "string"
        },
        {
          "indexed": false,
          "name": "viewCount",
          "type": "uint256"
        },
        {
          "indexed": false,
          "name": "_author",
          "type": "string"
        },
        {
          "indexed": false,
          "name": "_editor",
          "type": "string"
        }
      ],
      "name": "newDetailQuestionAdded",
      "type": "event"
    },
    {
      "anonymous": false,
      "inputs": [
        {
          "indexed": false,
          "name": "_creationDate",
          "type": "uint256"
        },
        {
          "indexed": false,
          "name": "_lastActivity",
          "type": "uint256"
        },
        {
          "indexed": false,
          "name": "_lastModified",
          "type": "uint256"
        }
      ],
      "name": "newTimeQuestionAdded",
      "type": "event"
    },
    {
      "anonymous": false,
      "inputs": [
        {
          "indexed": false,
          "name": "_url",
          "type": "string"
        },
        {
          "indexed": false,
          "name": "_date",
          "type": "string"
        },
        {
          "indexed": false,
          "name": "_language",
          "type": "string"
        },
        {
          "indexed": false,
          "name": "_projectName",
          "type": "string"
        },
        {
          "indexed": false,
          "name": "_companyName",
          "type": "string"
        },
        {
          "indexed": false,
          "name": "_projectPath",
          "type": "string"
        },
        {
          "indexed": false,
          "name": "_projectAuthor",
          "type": "string"
        }
      ],
      "name": "newCodeSnippetAdded",
      "type": "event"
    },
    {
      "constant": false,
      "inputs": [
        {
          "name": "_url",
          "type": "string"
        },
        {
          "name": "_title",
          "type": "string"
        },
        {
          "name": "_viewCount",
          "type": "uint256"
        },
        {
          "name": "_author",
          "type": "string"
        },
        {
          "name": "_editor",
          "type": "string"
        },
        {
          "name": "_creationDate",
          "type": "uint256"
        },
        {
          "name": "_lastActivity",
          "type": "uint256"
        },
        {
          "name": "_lastModified",
          "type": "uint256"
        }
      ],
      "name": "createNewQuestion",
      "outputs": [],
      "payable": false,
      "stateMutability": "nonpayable",
      "type": "function"
    },
    {
      "constant": false,
      "inputs": [
        {
          "name": "_url",
          "type": "string"
        },
        {
          "name": "_date",
          "type": "string"
        },
        {
          "name": "_language",
          "type": "string"
        },
        {
          "name": "_projectName",
          "type": "string"
        },
        {
          "name": "_companyName",
          "type": "string"
        },
        {
          "name": "_projectPath",
          "type": "string"
        },
        {
          "name": "_projectAuthor",
          "type": "string"
        }
      ],
      "name": "createNewCodeSnippet",
      "outputs": [],
      "payable": false,
      "stateMutability": "nonpayable",
      "type": "function"
    },
    {
      "constant": true,
      "inputs": [
        {
          "name": "url",
          "type": "string"
        }
      ],
      "name": "getDetailAnswer",
      "outputs": [
        {
          "name": "",
          "type": "string"
        },
        {
          "name": "",
          "type": "string"
        },
        {
          "name": "",
          "type": "string"
        },
        {
          "name": "",
          "type": "string"
        },
        {
          "name": "",
          "type": "bool"
        }
      ],
      "payable": false,
      "stateMutability": "view",
      "type": "function"
    },
    {
      "constant": true,
      "inputs": [
        {
          "name": "url",
          "type": "string"
        }
      ],
      "name": "getTimeAnswer",
      "outputs": [
        {
          "name": "",
          "type": "uint256"
        },
        {
          "name": "",
          "type": "uint256"
        },
        {
          "name": "",
          "type": "uint256"
        }
      ],
      "payable": false,
      "stateMutability": "view",
      "type": "function"
    },
    {
      "constant": true,
      "inputs": [
        {
          "name": "url",
          "type": "string"
        }
      ],
      "name": "getDetailQuestion",
      "outputs": [
        {
          "name": "",
          "type": "string"
        },
        {
          "name": "",
          "type": "string"
        },
        {
          "name": "",
          "type": "uint256"
        },
        {
          "name": "",
          "type": "string"
        },
        {
          "name": "",
          "type": "string"
        }
      ],
      "payable": false,
      "stateMutability": "view",
      "type": "function"
    },
    {
      "constant": true,
      "inputs": [
        {
          "name": "url",
          "type": "string"
        }
      ],
      "name": "getTimeQuestion",
      "outputs": [
        {
          "name": "",
          "type": "uint256"
        },
        {
          "name": "",
          "type": "uint256"
        },
        {
          "name": "",
          "type": "uint256"
        }
      ],
      "payable": false,
      "stateMutability": "view",
      "type": "function"
    },
    {
      "constant": true,
      "inputs": [
        {
          "name": "url",
          "type": "string"
        }
      ],
      "name": "getIndexOfCodeSnippet",
      "outputs": [
        {
          "name": "",
          "type": "uint256"
        }
      ],
      "payable": false,
      "stateMutability": "view",
      "type": "function"
    },
    {
      "constant": true,
      "inputs": [
        {
          "name": "url",
          "type": "string"
        },
        {
          "name": "index",
          "type": "uint256"
        }
      ],
      "name": "getDetailCodeSnippet",
      "outputs": [
        {
          "name": "",
          "type": "string"
        }
      ],
      "payable": false,
      "stateMutability": "view",
      "type": "function"
    }
  ],
  "bytecode": "0x608060405234801561001057600080fd5b506127b3806100206000396000f3fe608060405234801561001057600080fd5b50600436106100a95760003560e01c80637ee005ab116100715780637ee005ab1461017f5780638591b444146101b65780638bec2be4146101ea578063baba189d1461021e578063c946c0331461024e578063e2d12b7a14610280576100a9565b80630a136bc6146100ae578063123ef0b0146100ca57806321eb1930146100fa578063235762c2146101165780632404479e1461014d575b600080fd5b6100c860048036036100c39190810190611e34565b6102b6565b005b6100e460048036036100df9190810190611df3565b610474565b6040516100f191906125de565b60405180910390f35b610114600480360361010f9190810190611f7a565b61049f565b005b610130600480360361012b9190810190611db2565b6108ad565b60405161014498979695949392919061239b565b60405180910390f35b61016760048036036101629190810190611df3565b610b78565b604051610176939291906125f9565b60405180910390f35b61019960048036036101949190810190611db2565b610bf0565b6040516101ad9897969594939291906124d5565b60405180910390f35b6101d060048036036101cb9190810190611df3565b610eae565b6040516101e195949392919061232c565b60405180910390f35b61020460048036036101ff9190810190611df3565b6111df565b6040516102159594939291906122bd565b60405180910390f35b6102386004803603610233919081019061208c565b61151d565b604051610245919061229b565b60405180910390f35b61026860048036036102639190810190611df3565b6115fa565b604051610277939291906125f9565b60405180910390f35b61029a600480360361029591908101906120e0565b611672565b6040516102ad9796959493929190612435565b60405180910390f35b6102be611b0c565b6040518060e001604052808981526020018881526020018781526020018681526020018581526020018481526020018381525090506003886040516103039190612284565b908152602001604051809103902081908060018154018082558091505090600182039060005260206000209060070201600090919290919091506000820151816000019080519060200190610359929190611b49565b506020820151816001019080519060200190610376929190611b49565b506040820151816002019080519060200190610393929190611b49565b5060608201518160030190805190602001906103b0929190611b49565b5060808201518160040190805190602001906103cd929190611b49565b5060a08201518160050190805190602001906103ea929190611b49565b5060c0820151816006019080519060200190610407929190611b49565b505050507f9ca452f65c012227b2a18473d2602b9c733e954a0f95fcbefaee6d891e73a26c816000015182602001518360400151846060015185608001518660a001518760c001516040516104629796959493929190612435565b60405180910390a15050505050505050565b60006003826040516104869190612284565b9081526020016040518091039020805490509050919050565b876004896040516104b09190612284565b908152602001604051809103902060000190805190602001906104d4929190611bc9565b50866004896040516104e69190612284565b9081526020016040518091039020600101908051906020019061050a929190611bc9565b508560048960405161051c9190612284565b908152602001604051809103902060020181905550846004896040516105429190612284565b90815260200160405180910390206003019080519060200190610566929190611bc9565b50836004896040516105789190612284565b9081526020016040518091039020600401908051906020019061059c929190611bc9565b50826004896040516105ae9190612284565b908152602001604051809103902060050181905550816004896040516105d49190612284565b908152602001604051809103902060060181905550806004896040516105fa9190612284565b90815260200160405180910390206007018190555060006004896040516106219190612284565b90815260200160405180910390209080600181540180825580915050906001820390600052602060002090600802016000909192909190915060008201816000019080546001816001161561010002031660029004610681929190611c49565b50600182018160010190805460018160011615610100020316600290046106a9929190611c49565b5060028201548160020155600382018160030190805460018160011615610100020316600290046106db929190611c49565b5060048201816004019080546001816001161561010002031660029004610703929190611c49565b506005820154816005015560068201548160060155600782015481600701555050507fcb713131b41e4ebd745834c86b97a474d2018c8ba3fdd86657b8860dcd29edae6004896040516107569190612284565b908152602001604051809103902060000160048a6040516107779190612284565b908152602001604051809103902060010160048b6040516107989190612284565b90815260200160405180910390206002015460048c6040516107ba9190612284565b908152602001604051809103902060030160048d6040516107db9190612284565b90815260200160405180910390206004016040516107fd95949392919061256f565b60405180910390a17f8d9d1099fd80e9bd9a0984428344f2f118171423de638959c7689751a6201d056004896040516108369190612284565b90815260200160405180910390206005015460048a6040516108589190612284565b90815260200160405180910390206006015460048b60405161087a9190612284565b90815260200160405180910390206007015460405161089b939291906125f9565b60405180910390a15050505050505050565b600281805160208101820180518482526020830160208501208183528095505050505050600091509050806000018054600181600116156101000203166002900480601f01602080910402602001604051908101604052809291908181526020018280546001816001161561010002031660029004801561096f5780601f106109445761010080835404028352916020019161096f565b820191906000526020600020905b81548152906001019060200180831161095257829003601f168201915b505050505090806001018054600181600116156101000203166002900480601f016020809104026020016040519081016040528092919081815260200182805460018160011615610100020316600290048015610a0d5780601f106109e257610100808354040283529160200191610a0d565b820191906000526020600020905b8154815290600101906020018083116109f057829003601f168201915b505050505090806002018054600181600116156101000203166002900480601f016020809104026020016040519081016040528092919081815260200182805460018160011615610100020316600290048015610aab5780601f10610a8057610100808354040283529160200191610aab565b820191906000526020600020905b815481529060010190602001808311610a8e57829003601f168201915b505050505090806003018054600181600116156101000203166002900480601f016020809104026020016040519081016040528092919081815260200182805460018160011615610100020316600290048015610b495780601f10610b1e57610100808354040283529160200191610b49565b820191906000526020600020905b815481529060010190602001808311610b2c57829003601f168201915b5050505050908060040160009054906101000a900460ff16908060050154908060060154908060070154905088565b6000806000600284604051610b8d9190612284565b908152602001604051809103902060050154600285604051610baf9190612284565b908152602001604051809103902060070154600286604051610bd19190612284565b9081526020016040518091039020600601549250925092509193909250565b600481805160208101820180518482526020830160208501208183528095505050505050600091509050806000018054600181600116156101000203166002900480601f016020809104026020016040519081016040528092919081815260200182805460018160011615610100020316600290048015610cb25780601f10610c8757610100808354040283529160200191610cb2565b820191906000526020600020905b815481529060010190602001808311610c9557829003601f168201915b505050505090806001018054600181600116156101000203166002900480601f016020809104026020016040519081016040528092919081815260200182805460018160011615610100020316600290048015610d505780601f10610d2557610100808354040283529160200191610d50565b820191906000526020600020905b815481529060010190602001808311610d3357829003601f168201915b505050505090806002015490806003018054600181600116156101000203166002900480601f016020809104026020016040519081016040528092919081815260200182805460018160011615610100020316600290048015610df45780601f10610dc957610100808354040283529160200191610df4565b820191906000526020600020905b815481529060010190602001808311610dd757829003601f168201915b505050505090806004018054600181600116156101000203166002900480601f016020809104026020016040519081016040528092919081815260200182805460018160011615610100020316600290048015610e925780601f10610e6757610100808354040283529160200191610e92565b820191906000526020600020905b815481529060010190602001808311610e7557829003601f168201915b5050505050908060050154908060060154908060070154905088565b6060806000606080600486604051610ec69190612284565b9081526020016040518091039020600001600487604051610ee79190612284565b9081526020016040518091039020600101600488604051610f089190612284565b908152602001604051809103902060020154600489604051610f2a9190612284565b908152602001604051809103902060030160048a604051610f4b9190612284565b9081526020016040518091039020600401848054600181600116156101000203166002900480601f016020809104026020016040519081016040528092919081815260200182805460018160011615610100020316600290048015610ff15780601f10610fc657610100808354040283529160200191610ff1565b820191906000526020600020905b815481529060010190602001808311610fd457829003601f168201915b50505050509450838054600181600116156101000203166002900480601f01602080910402602001604051908101604052809291908181526020018280546001816001161561010002031660029004801561108d5780601f106110625761010080835404028352916020019161108d565b820191906000526020600020905b81548152906001019060200180831161107057829003601f168201915b50505050509350818054600181600116156101000203166002900480601f0160208091040260200160405190810160405280929190818152602001828054600181600116156101000203166002900480156111295780601f106110fe57610100808354040283529160200191611129565b820191906000526020600020905b81548152906001019060200180831161110c57829003601f168201915b50505050509150808054600181600116156101000203166002900480601f0160208091040260200160405190810160405280929190818152602001828054600181600116156101000203166002900480156111c55780601f1061119a576101008083540402835291602001916111c5565b820191906000526020600020905b8154815290600101906020018083116111a857829003601f168201915b505050505090509450945094509450945091939590929450565b60608060608060006002866040516111f79190612284565b90815260200160405180910390206000016002876040516112189190612284565b90815260200160405180910390206001016002886040516112399190612284565b908152602001604051809103902060020160028960405161125a9190612284565b908152602001604051809103902060030160028a60405161127b9190612284565b908152602001604051809103902060040160009054906101000a900460ff16848054600181600116156101000203166002900480601f01602080910402602001604051908101604052809291908181526020018280546001816001161561010002031660029004801561132f5780601f106113045761010080835404028352916020019161132f565b820191906000526020600020905b81548152906001019060200180831161131257829003601f168201915b50505050509450838054600181600116156101000203166002900480601f0160208091040260200160405190810160405280929190818152602001828054600181600116156101000203166002900480156113cb5780601f106113a0576101008083540402835291602001916113cb565b820191906000526020600020905b8154815290600101906020018083116113ae57829003601f168201915b50505050509350828054600181600116156101000203166002900480601f0160208091040260200160405190810160405280929190818152602001828054600181600116156101000203166002900480156114675780601f1061143c57610100808354040283529160200191611467565b820191906000526020600020905b81548152906001019060200180831161144a57829003601f168201915b50505050509250818054600181600116156101000203166002900480601f0160208091040260200160405190810160405280929190818152602001828054600181600116156101000203166002900480156115035780601f106114d857610100808354040283529160200191611503565b820191906000526020600020905b8154815290600101906020018083116114e657829003601f168201915b505050505091509450945094509450945091939590929450565b606060038360405161152f9190612284565b9081526020016040518091039020828154811061154857fe5b90600052602060002090600702016000018054600181600116156101000203166002900480601f0160208091040260200160405190810160405280929190818152602001828054600181600116156101000203166002900480156115ed5780601f106115c2576101008083540402835291602001916115ed565b820191906000526020600020905b8154815290600101906020018083116115d057829003601f168201915b5050505050905092915050565b600080600060048460405161160f9190612284565b9081526020016040518091039020600501546004856040516116319190612284565b9081526020016040518091039020600601546004866040516116539190612284565b9081526020016040518091039020600701549250925092509193909250565b60038280516020810182018051848252602083016020850120818352809550505050505081815481106116a157fe5b906000526020600020906007020160009150915050806000018054600181600116156101000203166002900480601f01602080910402602001604051908101604052809291908181526020018280546001816001161561010002031660029004801561174e5780601f106117235761010080835404028352916020019161174e565b820191906000526020600020905b81548152906001019060200180831161173157829003601f168201915b505050505090806001018054600181600116156101000203166002900480601f0160208091040260200160405190810160405280929190818152602001828054600181600116156101000203166002900480156117ec5780601f106117c1576101008083540402835291602001916117ec565b820191906000526020600020905b8154815290600101906020018083116117cf57829003601f168201915b505050505090806002018054600181600116156101000203166002900480601f01602080910402602001604051908101604052809291908181526020018280546001816001161561010002031660029004801561188a5780601f1061185f5761010080835404028352916020019161188a565b820191906000526020600020905b81548152906001019060200180831161186d57829003601f168201915b505050505090806003018054600181600116156101000203166002900480601f0160208091040260200160405190810160405280929190818152602001828054600181600116156101000203166002900480156119285780601f106118fd57610100808354040283529160200191611928565b820191906000526020600020905b81548152906001019060200180831161190b57829003601f168201915b505050505090806004018054600181600116156101000203166002900480601f0160208091040260200160405190810160405280929190818152602001828054600181600116156101000203166002900480156119c65780601f1061199b576101008083540402835291602001916119c6565b820191906000526020600020905b8154815290600101906020018083116119a957829003601f168201915b505050505090806005018054600181600116156101000203166002900480601f016020809104026020016040519081016040528092919081815260200182805460018160011615610100020316600290048015611a645780601f10611a3957610100808354040283529160200191611a64565b820191906000526020600020905b815481529060010190602001808311611a4757829003601f168201915b505050505090806006018054600181600116156101000203166002900480601f016020809104026020016040519081016040528092919081815260200182805460018160011615610100020316600290048015611b025780601f10611ad757610100808354040283529160200191611b02565b820191906000526020600020905b815481529060010190602001808311611ae557829003601f168201915b5050505050905087565b6040518060e00160405280606081526020016060815260200160608152602001606081526020016060815260200160608152602001606081525090565b828054600181600116156101000203166002900490600052602060002090601f016020900481019282601f10611b8a57805160ff1916838001178555611bb8565b82800160010185558215611bb8579182015b82811115611bb7578251825591602001919060010190611b9c565b5b509050611bc59190611cd0565b5090565b828054600181600116156101000203166002900490600052602060002090601f016020900481019282601f10611c0a57805160ff1916838001178555611c38565b82800160010185558215611c38579182015b82811115611c37578251825591602001919060010190611c1c565b5b509050611c459190611cd0565b5090565b828054600181600116156101000203166002900490600052602060002090601f016020900481019282601f10611c825780548555611cbf565b82800160010185558215611cbf57600052602060002091601f016020900482015b82811115611cbe578254825591600101919060010190611ca3565b5b509050611ccc9190611cd0565b5090565b611cf291905b80821115611cee576000816000905550600101611cd6565b5090565b90565b600082601f830112611d0657600080fd5b8135611d19611d148261265d565b612630565b91508082526020830160208301858383011115611d3557600080fd5b611d4083828461270f565b50505092915050565b600082601f830112611d5a57600080fd5b8135611d6d611d6882612689565b612630565b91508082526020830160208301858383011115611d8957600080fd5b611d9483828461270f565b50505092915050565b600081359050611dac81612762565b92915050565b600060208284031215611dc457600080fd5b600082013567ffffffffffffffff811115611dde57600080fd5b611dea84828501611cf5565b91505092915050565b600060208284031215611e0557600080fd5b600082013567ffffffffffffffff811115611e1f57600080fd5b611e2b84828501611d49565b91505092915050565b600080600080600080600060e0888a031215611e4f57600080fd5b600088013567ffffffffffffffff811115611e6957600080fd5b611e758a828b01611d49565b975050602088013567ffffffffffffffff811115611e9257600080fd5b611e9e8a828b01611d49565b965050604088013567ffffffffffffffff811115611ebb57600080fd5b611ec78a828b01611d49565b955050606088013567ffffffffffffffff811115611ee457600080fd5b611ef08a828b01611d49565b945050608088013567ffffffffffffffff811115611f0d57600080fd5b611f198a828b01611d49565b93505060a088013567ffffffffffffffff811115611f3657600080fd5b611f428a828b01611d49565b92505060c088013567ffffffffffffffff811115611f5f57600080fd5b611f6b8a828b01611d49565b91505092959891949750929550565b600080600080600080600080610100898b031215611f9757600080fd5b600089013567ffffffffffffffff811115611fb157600080fd5b611fbd8b828c01611d49565b985050602089013567ffffffffffffffff811115611fda57600080fd5b611fe68b828c01611d49565b9750506040611ff78b828c01611d9d565b965050606089013567ffffffffffffffff81111561201457600080fd5b6120208b828c01611d49565b955050608089013567ffffffffffffffff81111561203d57600080fd5b6120498b828c01611d49565b94505060a061205a8b828c01611d9d565b93505060c061206b8b828c01611d9d565b92505060e061207c8b828c01611d9d565b9150509295985092959890939650565b6000806040838503121561209f57600080fd5b600083013567ffffffffffffffff8111156120b957600080fd5b6120c585828601611d49565b92505060206120d685828601611d9d565b9150509250929050565b600080604083850312156120f357600080fd5b600083013567ffffffffffffffff81111561210d57600080fd5b61211985828601611cf5565b925050602061212a85828601611d9d565b9150509250929050565b61213d816126f9565b82525050565b600061214e826126d2565b61215881856126dd565b935061216881856020860161271e565b61217181612751565b840191505092915050565b6000612187826126d2565b61219181856126ee565b93506121a181856020860161271e565b80840191505092915050565b60006121b8826126c7565b6121c281856126dd565b93506121d281856020860161271e565b6121db81612751565b840191505092915050565b60008154600181166000811461220357600181146122295761226d565b607f600283041661221481876126dd565b955060ff19831686526020860193505061226d565b6002820461223781876126dd565b9550612242856126b5565b60005b8281101561226457815481890152600182019150602081019050612245565b80880195505050505b505092915050565b61227e81612705565b82525050565b6000612290828461217c565b915081905092915050565b600060208201905081810360008301526122b58184612143565b905092915050565b600060a08201905081810360008301526122d78188612143565b905081810360208301526122eb8187612143565b905081810360408301526122ff8186612143565b905081810360608301526123138185612143565b90506123226080830184612134565b9695505050505050565b600060a08201905081810360008301526123468188612143565b9050818103602083015261235a8187612143565b90506123696040830186612275565b818103606083015261237b8185612143565b9050818103608083015261238f8184612143565b90509695505050505050565b60006101008201905081810360008301526123b6818b6121ad565b905081810360208301526123ca818a6121ad565b905081810360408301526123de81896121ad565b905081810360608301526123f281886121ad565b90506124016080830187612134565b61240e60a0830186612275565b61241b60c0830185612275565b61242860e0830184612275565b9998505050505050505050565b600060e082019050818103600083015261244f818a6121ad565b9050818103602083015261246381896121ad565b9050818103604083015261247781886121ad565b9050818103606083015261248b81876121ad565b9050818103608083015261249f81866121ad565b905081810360a08301526124b381856121ad565b905081810360c08301526124c781846121ad565b905098975050505050505050565b60006101008201905081810360008301526124f0818b6121ad565b90508181036020830152612504818a6121ad565b90506125136040830189612275565b818103606083015261252581886121ad565b9050818103608083015261253981876121ad565b905061254860a0830186612275565b61255560c0830185612275565b61256260e0830184612275565b9998505050505050505050565b600060a082019050818103600083015261258981886121e6565b9050818103602083015261259d81876121e6565b90506125ac6040830186612275565b81810360608301526125be81856121e6565b905081810360808301526125d281846121e6565b90509695505050505050565b60006020820190506125f36000830184612275565b92915050565b600060608201905061260e6000830186612275565b61261b6020830185612275565b6126286040830184612275565b949350505050565b6000604051905081810181811067ffffffffffffffff8211171561265357600080fd5b8060405250919050565b600067ffffffffffffffff82111561267457600080fd5b601f19601f8301169050602081019050919050565b600067ffffffffffffffff8211156126a057600080fd5b601f19601f8301169050602081019050919050565b60008160005260206000209050919050565b600081519050919050565b600081519050919050565b600082825260208201905092915050565b600081905092915050565b60008115159050919050565b6000819050919050565b82818337600083830152505050565b60005b8381101561273c578082015181840152602081019050612721565b8381111561274b576000848401525b50505050565b6000601f19601f8301169050919050565b61276b81612705565b811461277657600080fd5b5056fea265627a7a72305820834b99b6a734cc8ec109521e59f6c6f192ab4f73a0df64ad92e7785f84bbf5f66c6578706572696d656e74616cf50037",
  "source": "pragma solidity >=0.4.0 <0.7.0;\r\npragma experimental ABIEncoderV2;\r\n// import \"./Ownable.sol\";\r\n\r\ncontract Data {\r\n    \r\n    event newAnswerAdded(string _url, string _newAnswerBody, string _newAnswerAuthor,\r\n    string _newAnswerEditor, uint _newAnswerCreationDate, uint _newAnswerLastModified,\r\n    uint _newAnswerLastActivity);\r\n\r\n    event newDetailQuestionAdded(string _url, string _title, uint viewCount,\r\n    string _author, string _editor);\r\n\r\n    event newTimeQuestionAdded( uint _creationDate, uint _lastActivity,uint _lastModified);\r\n\r\n    event newCodeSnippetAdded(string _url, string _date, string _language, string _projectName,\r\n    string _companyName, string _projectPath, string _projectAuthor);\r\n\r\n    //variables\r\n    StackOverflowInfo[] info;\r\n    Answer[] answers;\r\n    mapping (string => Answer) public getAnswers;\r\n    mapping (string => CodeSnippet[]) public getCodeSnippet;\r\n    mapping (string => StackOverflowInfo) public getInfo;\r\n    // mapping (string => address) public addressQuestioner;\r\n    address private _owner;\r\n\r\n    struct StackOverflowInfo {\r\n        string url;\r\n        string questionTitle;\r\n        uint viewCount;\r\n        string questionAuthor;\r\n        string questionEditor;\r\n        uint questionCreationDate;\r\n        uint questionLastActivity;\r\n        uint questionLastModified;\r\n        \r\n    }\r\n\r\n    struct CodeSnippet {\r\n        string url;\r\n        string date;\r\n        string language;\r\n        string projectName;\r\n        string companyName;\r\n        string projectPath;\r\n        string projectAuthor;\r\n    }\r\n\r\n    struct Answer {\r\n        string url;\r\n        string answerBody;\r\n        string answerAuthor;\r\n        string answerEditor;\r\n        bool isValue;\r\n        uint answerCreationDate;\r\n        uint answerLastModified;\r\n        uint answerLastActivity;\r\n    }\r\n\r\n    // constructor() internal {\r\n    //     _owner = msg.sender;\r\n    // }\r\n\r\n    // create a new question\r\n    function createNewQuestion(string memory _url, string memory _title,\r\n    uint _viewCount, string memory _author, string memory _editor,\r\n    uint _creationDate, uint _lastActivity, uint _lastModified) public {\r\n        \r\n        getInfo[_url].url = _url;\r\n        getInfo[_url].questionTitle = _title;\r\n        getInfo[_url].viewCount = _viewCount;\r\n        getInfo[_url].questionAuthor = _author;\r\n        getInfo[_url].questionEditor = _editor;\r\n        getInfo[_url].questionCreationDate = _creationDate;\r\n        getInfo[_url].questionLastActivity = _lastActivity;\r\n        getInfo[_url].questionLastModified = _lastModified;\r\n\r\n        info.push(getInfo[_url]);\r\n\r\n        emit newDetailQuestionAdded(getInfo[_url].url,\r\n        getInfo[_url].questionTitle, getInfo[_url].viewCount,\r\n        getInfo[_url].questionAuthor, getInfo[_url].questionEditor );\r\n\r\n        emit newTimeQuestionAdded(getInfo[_url].questionCreationDate,\r\n        getInfo[_url].questionLastActivity,getInfo[_url].questionLastModified);\r\n    }\r\n\r\n    function createNewCodeSnippet(string memory _url, string memory _date, string memory _language,\r\n    string memory _projectName, string memory _companyName, string memory _projectPath,\r\n    string memory _projectAuthor) public {\r\n\r\n\r\n        CodeSnippet memory newCode = CodeSnippet(_url, _date, _language, _projectName,\r\n         _companyName, _projectPath, _projectAuthor);\r\n\r\n        getCodeSnippet[_url].push(newCode);\r\n\r\n        emit newCodeSnippetAdded(newCode.url, newCode.date, newCode.language, newCode.projectName,\r\n        newCode.companyName, newCode.projectPath, newCode.projectAuthor);\r\n\r\n    }\r\n\r\n    // update new answer\r\n    // link with url from mapping\r\n    // TO DO check owner!\r\n    // TO Do set to private\r\n    // function updateNewAnswer(string memory _url, string memory _newAnswerBody,\r\n    // string memory _newAnswerAuthor, string memory _newAnswerEditor, uint _newAnswerCreationDate,\r\n    //  uint  _newAnswerLastActivity, uint _newAnswerLastModified) public {\r\n\r\n    //     if(getAnswers[_url].isValue){\r\n    //         getAnswers[_url].url = _url;\r\n    //         getAnswers[_url].answerBody = _newAnswerBody;\r\n    //         getAnswers[_url].answerAuthor = _newAnswerAuthor;\r\n    //         getAnswers[_url].answerEditor = _newAnswerEditor;\r\n    //         getAnswers[_url].answerCreationDate = _newAnswerCreationDate;\r\n    //         getAnswers[_url].answerLastActivity = _newAnswerLastActivity;\r\n    //         getAnswers[_url].answerLastModified = _newAnswerLastModified;\r\n            \r\n    //     }\r\n    //     else {\r\n    //         getAnswers[_url].url = _url;\r\n    //         getAnswers[_url].answerBody = _newAnswerBody;\r\n    //         getAnswers[_url].answerAuthor = _newAnswerAuthor;\r\n    //         getAnswers[_url].answerEditor = _newAnswerEditor;\r\n    //         getAnswers[_url].isValue = true;\r\n    //         getAnswers[_url].answerCreationDate = _newAnswerCreationDate;\r\n    //         getAnswers[_url].answerLastActivity = _newAnswerLastActivity;\r\n    //         getAnswers[_url].answerLastModified = _newAnswerLastModified;\r\n            \r\n    //         Answer memory newAnswer = Answer(getAnswers[_url].url,\r\n    //                                          getAnswers[_url].answerBody,\r\n    //                                          getAnswers[_url].answerAuthor,\r\n    //                                          getAnswers[_url].answerEditor,\r\n    //                                          getAnswers[_url].isValue,\r\n    //                                          getAnswers[_url].answerCreationDate,\r\n    //                                          getAnswers[_url].answerLastActivity,\r\n    //                                          getAnswers[_url].answerLastModified);\r\n    //         answers.push(newAnswer);\r\n    //     }\r\n       \r\n\r\n    //     emit newAnswerAdded(getAnswers[_url].url, getAnswers[_url].answerBody,\r\n    //     getAnswers[_url].answerAuthor, getAnswers[_url].answerEditor,\r\n    //     getAnswers[_url].answerCreationDate, getAnswers[_url].answerLastActivity,\r\n    //     getAnswers[_url].answerLastModified);\r\n\r\n    // }\r\n\r\n    function getDetailAnswer(string memory url) public view returns (string memory, string memory, string memory,\r\n    string memory, bool) {\r\n        \r\n        return (getAnswers[url].url,\r\n                getAnswers[url].answerBody,\r\n                getAnswers[url].answerAuthor,\r\n                getAnswers[url].answerEditor,\r\n                getAnswers[url].isValue);\r\n    }\r\n\r\n    function getTimeAnswer(string memory url) public view returns (uint, uint, uint) {\r\n        return (getAnswers[url].answerCreationDate,\r\n                getAnswers[url].answerLastActivity,\r\n                getAnswers[url].answerLastModified);\r\n    }\r\n\r\n    function getDetailQuestion(string memory url) public view returns (string memory, string memory,\r\n    uint, string memory, string memory) {\r\n        return (getInfo[url].url,\r\n                getInfo[url].questionTitle,\r\n                getInfo[url].viewCount,\r\n                getInfo[url].questionAuthor,\r\n                getInfo[url].questionEditor);\r\n    }\r\n\r\n    function getTimeQuestion(string memory url) public view returns (uint, uint, uint) {\r\n        return (getInfo[url].questionCreationDate,\r\n                getInfo[url].questionLastActivity,\r\n                getInfo[url].questionLastModified);\r\n    }\r\n\r\n    // function getDetailCodeSnippet(string memory url) public view returns (CodeSnippet[] memory snippet){\r\n    //     CodeSnippet[] memory code = new CodeSnippet[](getCodeSnippet[url].length);\r\n    //     uint count = 0;\r\n    //     for (uint i = 0; i < getCodeSnippet[url].length; i++) {\r\n    //         code[count] = getCodeSnippet[url][i];\r\n    //         count++;\r\n    //     }\r\n    //     return (code);\r\n    // }\r\n\r\n    function getIndexOfCodeSnippet(string memory url) public view returns (uint){\r\n        return (getCodeSnippet[url].length);\r\n    }\r\n\r\n    function getDetailCodeSnippet(string memory url, uint index) public view returns (string memory){\r\n        return (getCodeSnippet[url][index].url);\r\n    }\r\n\r\n    // , string memory, string memory, string memory, string memory, string memory, string memory\r\n    // ,\r\n    //             getCodeSnippet[url][index].date,\r\n    //             getCodeSnippet[url][index].language,\r\n    //             getCodeSnippet[url][index].projectName,\r\n    //             getCodeSnippet[url][index].companyName,\r\n    //             getCodeSnippet[url][index].projectPath,\r\n    //             getCodeSnippet[url][index].projectAuthor\r\n\r\n\r\n\r\n\r\n    // function owner() public view returns(address) {\r\n    //     return _owner;\r\n    // }\r\n\r\n    // function isOwner() public view returns(bool) {\r\n    //     return msg.sender == _owner;\r\n    // }\r\n\r\n    // modifier onlyOwner() {\r\n    //     require(isOwner());\r\n    //     _;\r\n    // }\r\n\r\n}",
  "sourcePath": "C:/Users/asus/Desktop/AnswerNotification/contracts/Data.sol",
  "compiler": {
    "name": "solc",
    "version": "0.5.8+commit.23d335f2.Emscripten.clang"
  },
  "schemaVersion": "3.0.10",
  "updatedAt": "2019-07-08T08:36:32.939Z",
  "devdoc": {
    "methods": {}
  },
  "userdoc": {
    "methods": {}
  }
}