{
  "contractName": "Data",
  "abi": [
    {
      "constant": true,
      "inputs": [
        {
          "name": "",
          "type": "string"
        },
        {
          "name": "",
          "type": "uint256"
        }
      ],
      "name": "getUUIDFromAnswer",
      "outputs": [
        {
          "name": "",
          "type": "uint256"
        }
      ],
      "payable": false,
      "stateMutability": "view",
      "type": "function"
    },
    {
      "constant": true,
      "inputs": [
        {
          "name": "",
          "type": "string"
        },
        {
          "name": "",
          "type": "uint256"
        }
      ],
      "name": "getSnippet",
      "outputs": [
        {
          "name": "data",
          "type": "string"
        },
        {
          "name": "uuid",
          "type": "uint256"
        }
      ],
      "payable": false,
      "stateMutability": "view",
      "type": "function"
    },
    {
      "constant": true,
      "inputs": [
        {
          "name": "",
          "type": "string"
        }
      ],
      "name": "getAnswers",
      "outputs": [
        {
          "name": "url",
          "type": "string"
        },
        {
          "name": "answerBody",
          "type": "string"
        },
        {
          "name": "answerAuthor",
          "type": "string"
        },
        {
          "name": "answerEditor",
          "type": "string"
        },
        {
          "name": "isValue",
          "type": "bool"
        },
        {
          "name": "answerCreationDate",
          "type": "uint256"
        },
        {
          "name": "answerLastModified",
          "type": "uint256"
        },
        {
          "name": "answerLastActivity",
          "type": "uint256"
        }
      ],
      "payable": false,
      "stateMutability": "view",
      "type": "function"
    },
    {
      "constant": true,
      "inputs": [
        {
          "name": "",
          "type": "string"
        }
      ],
      "name": "getUUIDFromQuestion",
      "outputs": [
        {
          "name": "",
          "type": "uint256"
        }
      ],
      "payable": false,
      "stateMutability": "view",
      "type": "function"
    },
    {
      "constant": true,
      "inputs": [
        {
          "name": "",
          "type": "string"
        }
      ],
      "name": "getQuestion",
      "outputs": [
        {
          "name": "url",
          "type": "string"
        },
        {
          "name": "data",
          "type": "string"
        },
        {
          "name": "uuidFromSnippet",
          "type": "uint256"
        },
        {
          "name": "isValue",
          "type": "bool"
        }
      ],
      "payable": false,
      "stateMutability": "view",
      "type": "function"
    },
    {
      "constant": true,
      "inputs": [
        {
          "name": "",
          "type": "string"
        },
        {
          "name": "",
          "type": "uint256"
        }
      ],
      "name": "getAnswer",
      "outputs": [
        {
          "name": "",
          "type": "string"
        }
      ],
      "payable": false,
      "stateMutability": "view",
      "type": "function"
    },
    {
      "anonymous": false,
      "inputs": [
        {
          "indexed": false,
          "name": "_url",
          "type": "string"
        },
        {
          "indexed": false,
          "name": "_newAnswerBody",
          "type": "string"
        },
        {
          "indexed": false,
          "name": "_newAnswerAuthor",
          "type": "string"
        },
        {
          "indexed": false,
          "name": "_newAnswerEditor",
          "type": "string"
        },
        {
          "indexed": false,
          "name": "_newAnswerCreationDate",
          "type": "uint256"
        },
        {
          "indexed": false,
          "name": "_newAnswerLastModified",
          "type": "uint256"
        },
        {
          "indexed": false,
          "name": "_newAnswerLastActivity",
          "type": "uint256"
        }
      ],
      "name": "newAnswerAdded",
      "type": "event"
    },
    {
      "anonymous": false,
      "inputs": [
        {
          "indexed": false,
          "name": "_url",
          "type": "string"
        },
        {
          "indexed": false,
          "name": "_title",
          "type": "string"
        },
        {
          "indexed": false,
          "name": "viewCount",
          "type": "uint256"
        },
        {
          "indexed": false,
          "name": "_author",
          "type": "string"
        },
        {
          "indexed": false,
          "name": "_editor",
          "type": "string"
        }
      ],
      "name": "newDetailQuestionAdded",
      "type": "event"
    },
    {
      "anonymous": false,
      "inputs": [
        {
          "indexed": false,
          "name": "_creationDate",
          "type": "uint256"
        },
        {
          "indexed": false,
          "name": "_lastActivity",
          "type": "uint256"
        },
        {
          "indexed": false,
          "name": "_lastModified",
          "type": "uint256"
        }
      ],
      "name": "newTimeQuestionAdded",
      "type": "event"
    },
    {
      "constant": false,
      "inputs": [
        {
          "name": "_url",
          "type": "string"
        },
        {
          "name": "_link",
          "type": "string"
        },
        {
          "name": "_data",
          "type": "string"
        }
      ],
      "name": "createNewQuestion",
      "outputs": [],
      "payable": false,
      "stateMutability": "nonpayable",
      "type": "function"
    },
    {
      "constant": false,
      "inputs": [
        {
          "name": "_url",
          "type": "string"
        },
        {
          "name": "_data",
          "type": "string"
        }
      ],
      "name": "addAnswer",
      "outputs": [],
      "payable": false,
      "stateMutability": "nonpayable",
      "type": "function"
    },
    {
      "constant": false,
      "inputs": [
        {
          "name": "_url",
          "type": "string"
        },
        {
          "name": "_link",
          "type": "string"
        },
        {
          "name": "_data",
          "type": "string"
        }
      ],
      "name": "createNewCodeSnippet",
      "outputs": [],
      "payable": false,
      "stateMutability": "nonpayable",
      "type": "function"
    },
    {
      "constant": true,
      "inputs": [
        {
          "name": "_url",
          "type": "string"
        }
      ],
      "name": "getIndexOfSnippet",
      "outputs": [
        {
          "name": "",
          "type": "uint256"
        }
      ],
      "payable": false,
      "stateMutability": "view",
      "type": "function"
    },
    {
      "constant": true,
      "inputs": [
        {
          "name": "_url",
          "type": "string"
        }
      ],
      "name": "getIndexOfAnswer",
      "outputs": [
        {
          "name": "",
          "type": "uint256"
        }
      ],
      "payable": false,
      "stateMutability": "view",
      "type": "function"
    },
    {
      "constant": true,
      "inputs": [
        {
          "name": "_url",
          "type": "string"
        }
      ],
      "name": "getDetailQuestion",
      "outputs": [
        {
          "name": "",
          "type": "uint256"
        },
        {
          "name": "",
          "type": "string"
        },
        {
          "name": "",
          "type": "bool"
        }
      ],
      "payable": false,
      "stateMutability": "view",
      "type": "function"
    },
    {
      "constant": true,
      "inputs": [
        {
          "name": "_url",
          "type": "string"
        }
      ],
      "name": "getDetailAnswer",
      "outputs": [
        {
          "name": "",
          "type": "string[]"
        }
      ],
      "payable": false,
      "stateMutability": "view",
      "type": "function"
    },
    {
      "constant": true,
      "inputs": [
        {
          "name": "_url",
          "type": "string"
        }
      ],
      "name": "getQAndA",
      "outputs": [
        {
          "name": "",
          "type": "uint256"
        },
        {
          "name": "",
          "type": "string"
        },
        {
          "name": "",
          "type": "string[]"
        }
      ],
      "payable": false,
      "stateMutability": "view",
      "type": "function"
    },
    {
      "constant": true,
      "inputs": [
        {
          "name": "_url",
          "type": "string"
        },
        {
          "name": "_index",
          "type": "uint256"
        }
      ],
      "name": "getDetailSnippet",
      "outputs": [
        {
          "name": "",
          "type": "string"
        },
        {
          "name": "",
          "type": "uint256"
        }
      ],
      "payable": false,
      "stateMutability": "view",
      "type": "function"
    },
    {
      "constant": true,
      "inputs": [
        {
          "name": "s",
          "type": "string"
        }
      ],
      "name": "getUUID",
      "outputs": [
        {
          "name": "",
          "type": "uint256"
        }
      ],
      "payable": false,
      "stateMutability": "pure",
      "type": "function"
    },
    {
      "constant": true,
      "inputs": [
        {
          "name": "_url",
          "type": "string"
        }
      ],
      "name": "getUUIDQuestion",
      "outputs": [
        {
          "name": "",
          "type": "uint256"
        }
      ],
      "payable": false,
      "stateMutability": "view",
      "type": "function"
    },
    {
      "constant": true,
      "inputs": [
        {
          "name": "_url",
          "type": "string"
        },
        {
          "name": "_index",
          "type": "uint256"
        }
      ],
      "name": "getUUIDAnswer",
      "outputs": [
        {
          "name": "",
          "type": "uint256"
        }
      ],
      "payable": false,
      "stateMutability": "view",
      "type": "function"
    },
    {
      "constant": true,
      "inputs": [
        {
          "name": "_url",
          "type": "string"
        },
        {
          "name": "_index",
          "type": "uint256"
        }
      ],
      "name": "getUUIDSnippet",
      "outputs": [
        {
          "name": "",
          "type": "uint256"
        }
      ],
      "payable": false,
      "stateMutability": "view",
      "type": "function"
    },
    {
      "constant": true,
      "inputs": [
        {
          "name": "s",
          "type": "string"
        }
      ],
      "name": "stringToBytes",
      "outputs": [
        {
          "name": "",
          "type": "bytes"
        }
      ],
      "payable": false,
      "stateMutability": "pure",
      "type": "function"
    },
    {
      "constant": true,
      "inputs": [],
      "name": "blockNumber",
      "outputs": [
        {
          "name": "",
          "type": "bytes32"
        }
      ],
      "payable": false,
      "stateMutability": "view",
      "type": "function"
    },
    {
      "constant": true,
      "inputs": [
        {
          "name": "data",
          "type": "bytes32"
        }
      ],
      "name": "bytes32ToString",
      "outputs": [
        {
          "name": "",
          "type": "string"
        }
      ],
      "payable": false,
      "stateMutability": "pure",
      "type": "function"
    },
    {
      "constant": false,
      "inputs": [
        {
          "name": "_url",
          "type": "string"
        }
      ],
      "name": "setValue",
      "outputs": [],
      "payable": false,
      "stateMutability": "nonpayable",
      "type": "function"
    },
    {
      "constant": true,
      "inputs": [
        {
          "name": "_url",
          "type": "string"
        }
      ],
      "name": "contains",
      "outputs": [
        {
          "name": "",
          "type": "bool"
        }
      ],
      "payable": false,
      "stateMutability": "view",
      "type": "function"
    },
    {
      "constant": true,
      "inputs": [
        {
          "name": "a",
          "type": "string"
        },
        {
          "name": "b",
          "type": "string"
        }
      ],
      "name": "appendString",
      "outputs": [
        {
          "name": "",
          "type": "string"
        }
      ],
      "payable": false,
      "stateMutability": "pure",
      "type": "function"
    },
    {
      "constant": true,
      "inputs": [
        {
          "name": "_url",
          "type": "string"
        }
      ],
      "name": "hasAnswerLink",
      "outputs": [
        {
          "name": "",
          "type": "bool"
        }
      ],
      "payable": false,
      "stateMutability": "view",
      "type": "function"
    }
  ],
  "bytecode": "0x608060405234801561001057600080fd5b506125b6806100206000396000f3fe608060405234801561001057600080fd5b506004361061018e5760003560e01c80639201de55116100de578063c407604d11610097578063cdb400e911610071578063cdb400e914610575578063df24ea45146105a5578063e106fb4b146105c1578063e533a54e146105f15761018e565b8063c407604d146104e2578063c68f756914610512578063ccb1c0a1146105425761018e565b80639201de55146103fe57806393a093521461042e578063a694939a1461044a578063b6f8435514610466578063bf5c3a3114610496578063c35085fb146104b25761018e565b8063567b3a1d1161014b57806375fd7dd71161012557806375fd7dd71461033c5780637fb6bf391461036c5780638591b4441461039c5780638bec2be4146103ce5761018e565b8063567b3a1d146102be57806357e871e7146102ee5780636833d54f1461030c5761018e565b80630b8a76ad146101935780631efbacef146101c3578063235762c2146101f45780632e7e107b1461022b5780634b46b4371461025d57806351c932731461028d575b600080fd5b6101ad60048036036101a89190810190611d85565b610621565b6040516101ba9190612306565b60405180910390f35b6101dd60048036036101d89190810190611d85565b610665565b6040516101eb9291906122d6565b60405180910390f35b61020e60048036036102099190810190611bac565b610751565b6040516102229897969594939291906121e9565b60405180910390f35b61024560048036036102409190810190611bed565b610a1c565b60405161025493929190612321565b60405180910390f35b61027760048036036102729190810190611bed565b610c0e565b604051610284919061211d565b60405180910390f35b6102a760048036036102a29190810190611d31565b610cb2565b6040516102b59291906121b9565b60405180910390f35b6102d860048036036102d39190810190611bed565b610dd2565b6040516102e59190612306565b60405180910390f35b6102f6610dfd565b6040516103039190612138565b60405180910390f35b61032660048036036103219190810190611bed565b610e08565b604051610333919061211d565b60405180910390f35b61035660048036036103519190810190611bed565b610e40565b6040516103639190612306565b60405180910390f35b61038660048036036103819190810190611bac565b610e81565b6040516103939190612306565b60405180910390f35b6103b660048036036103b19190810190611bed565b610eaf565b6040516103c593929190612366565b60405180910390f35b6103e860048036036103e39190810190611bed565b610fd0565b6040516103f591906120fb565b60405180910390f35b61041860048036036104139190810190611b83565b6110d7565b6040516104259190612197565b60405180910390f35b61044860048036036104439190810190611bed565b6111b5565b005b610464600480360361045f9190810190611c2e565b6111f2565b005b610480600480360361047b9190810190611bed565b611251565b60405161048d9190612306565b60405180910390f35b6104b060048036036104ab9190810190611c9a565b611279565b005b6104cc60048036036104c79190810190611c2e565b611418565b6040516104d99190612197565b60405180910390f35b6104fc60048036036104f79190810190611d31565b611444565b6040516105099190612306565b60405180910390f35b61052c60048036036105279190810190611bed565b611489565b6040516105399190612306565b60405180910390f35b61055c60048036036105579190810190611bac565b6114b4565b60405161056c9493929190612283565b60405180910390f35b61058f600480360361058a9190810190611d31565b611637565b60405161059c9190612306565b60405180910390f35b6105bf60048036036105ba9190810190611c9a565b611675565b005b6105db60048036036105d69190810190611bed565b6117b3565b6040516105e89190612153565b60405180910390f35b61060b60048036036106069190810190611d85565b6117c2565b6040516106189190612175565b60405180910390f35b600682805160208101820180518482526020830160208501208183528095505050505050818154811061065057fe5b90600052602060002001600091509150505481565b600482805160208101820180518482526020830160208501208183528095505050505050818154811061069457fe5b906000526020600020906002020160009150915050806000018054600181600116156101000203166002900480601f0160208091040260200160405190810160405280929190818152602001828054600181600116156101000203166002900480156107415780601f1061071657610100808354040283529160200191610741565b820191906000526020600020905b81548152906001019060200180831161072457829003601f168201915b5050505050908060010154905082565b600181805160208101820180518482526020830160208501208183528095505050505050600091509050806000018054600181600116156101000203166002900480601f0160208091040260200160405190810160405280929190818152602001828054600181600116156101000203166002900480156108135780601f106107e857610100808354040283529160200191610813565b820191906000526020600020905b8154815290600101906020018083116107f657829003601f168201915b505050505090806001018054600181600116156101000203166002900480601f0160208091040260200160405190810160405280929190818152602001828054600181600116156101000203166002900480156108b15780601f10610886576101008083540402835291602001916108b1565b820191906000526020600020905b81548152906001019060200180831161089457829003601f168201915b505050505090806002018054600181600116156101000203166002900480601f01602080910402602001604051908101604052809291908181526020018280546001816001161561010002031660029004801561094f5780601f106109245761010080835404028352916020019161094f565b820191906000526020600020905b81548152906001019060200180831161093257829003601f168201915b505050505090806003018054600181600116156101000203166002900480601f0160208091040260200160405190810160405280929190818152602001828054600181600116156101000203166002900480156109ed5780601f106109c2576101008083540402835291602001916109ed565b820191906000526020600020905b8154815290600101906020018083116109d057829003601f168201915b5050505050908060040160009054906101000a900460ff16908060050154908060060154908060070154905088565b6000606080600284604051610a319190612094565b908152602001604051809103902060020154600285604051610a539190612094565b9081526020016040518091039020600101600386604051610a749190612094565b9081526020016040518091039020818054600181600116156101000203166002900480601f016020809104026020016040519081016040528092919081815260200182805460018160011615610100020316600290048015610b175780601f10610aec57610100808354040283529160200191610b17565b820191906000526020600020905b815481529060010190602001808311610afa57829003601f168201915b5050505050915080805480602002602001604051908101604052809291908181526020016000905b82821015610bfb578382906000526020600020018054600181600116156101000203166002900480601f016020809104026020016040519081016040528092919081815260200182805460018160011615610100020316600290048015610be75780601f10610bbc57610100808354040283529160200191610be7565b820191906000526020600020905b815481529060010190602001808311610bca57829003601f168201915b505050505081526020019060010190610b3f565b5050505090509250925092509193909250565b6000806000905060008090505b600080549050811015610ca85783604051602001610c399190612094565b6040516020818303038152906040528051906020012060008281548110610c5c57fe5b90600052602060002001604051602001610c7691906120cf565b604051602081830303815290604052805190602001201415610c9b5760019150610ca8565b8080600101915050610c1b565b5080915050919050565b60606000600484604051610cc69190612094565b90815260200160405180910390208381548110610cdf57fe5b9060005260206000209060020201600001600485604051610d009190612094565b90815260200160405180910390208481548110610d1957fe5b906000526020600020906002020160010154818054600181600116156101000203166002900480601f016020809104026020016040519081016040528092919081815260200182805460018160011615610100020316600290048015610dc05780601f10610d9557610100808354040283529160200191610dc0565b820191906000526020600020905b815481529060010190602001808311610da357829003601f168201915b50505050509150915091509250929050565b6000600382604051610de49190612094565b9081526020016040518091039020805490509050919050565b60004360001b905090565b6000600282604051610e1a9190612094565b908152602001604051809103902060030160009054906101000a900460ff169050919050565b60006060610e4d836117b3565b905080604051602001610e60919061207d565b6040516020818303038152906040528051906020012060001c915050919050565b6005818051602081018201805184825260208301602085012081835280955050505050506000915090505481565b600060606000600284604051610ec59190612094565b908152602001604051809103902060020154600285604051610ee79190612094565b9081526020016040518091039020600101600286604051610f089190612094565b908152602001604051809103902060030160009054906101000a900460ff16818054600181600116156101000203166002900480601f016020809104026020016040519081016040528092919081815260200182805460018160011615610100020316600290048015610fbc5780601f10610f9157610100808354040283529160200191610fbc565b820191906000526020600020905b815481529060010190602001808311610f9f57829003601f168201915b505050505091509250925092509193909250565b6060600382604051610fe29190612094565b9081526020016040518091039020805480602002602001604051908101604052809291908181526020016000905b828210156110cc578382906000526020600020018054600181600116156101000203166002900480601f0160208091040260200160405190810160405280929190818152602001828054600181600116156101000203166002900480156110b85780601f1061108d576101008083540402835291602001916110b8565b820191906000526020600020905b81548152906001019060200180831161109b57829003601f168201915b505050505081526020019060010190611010565b505050509050919050565b60608060206040519080825280601f01601f19166020018201604052801561110e5781602001600182028038833980820191505090505b50905060008090505b60208110156111ab5760008160080260020a8560001c0260001b9050600060f81b817effffffffffffffffffffffffffffffffffffffffffffffffffffffffffffff19161461119d578083838151811061116d57fe5b60200101907effffffffffffffffffffffffffffffffffffffffffffffffffffffffffffff1916908160001a9053505b508080600101915050611117565b5080915050919050565b60016002826040516111c79190612094565b908152602001604051809103902060030160006101000a81548160ff02191690831515021790555050565b6003826040516112029190612094565b908152602001604051809103902081908060018154018082558091505090600182039060005260206000200160009091929091909150908051906020019061124b929190611972565b50505050565b60006005826040516112639190612094565b9081526020016040518091039020549050919050565b600061129c6112978361129261128d610dfd565b6110d7565b611418565b610e40565b90506112a66119f2565b60405180604001604052808481526020018381525090506040516020016112cc906120e6565b60405160208183030381529060405280519060200120846040516020016112f39190612094565b6040516020818303038152906040528051906020012014156113925760048560405161131f9190612094565b908152602001604051809103902081908060018154018082558091505090600182039060005260206000209060020201600090919290919091506000820151816000019080519060200190611375929190611a0c565b506020820151816001015550505061138d858361189e565b611411565b6004846040516113a29190612094565b9081526020016040518091039020819080600181540180825580915050906001820390600052602060002090600202016000909192909190915060008201518160000190805190602001906113f8929190611a0c565b50602082015181600101555050506114108483611926565b5b5050505050565b6060828260405160200161142d9291906120ab565b604051602081830303815290604052905092915050565b60006004836040516114569190612094565b9081526020016040518091039020828154811061146f57fe5b906000526020600020906002020160010154905092915050565b600060048260405161149b9190612094565b9081526020016040518091039020805490509050919050565b600281805160208101820180518482526020830160208501208183528095505050505050600091509050806000018054600181600116156101000203166002900480601f0160208091040260200160405190810160405280929190818152602001828054600181600116156101000203166002900480156115765780601f1061154b57610100808354040283529160200191611576565b820191906000526020600020905b81548152906001019060200180831161155957829003601f168201915b505050505090806001018054600181600116156101000203166002900480601f0160208091040260200160405190810160405280929190818152602001828054600181600116156101000203166002900480156116145780601f106115e957610100808354040283529160200191611614565b820191906000526020600020905b8154815290600101906020018083116115f757829003601f168201915b5050505050908060020154908060030160009054906101000a900460ff16905084565b60006006836040516116499190612094565b9081526020016040518091039020828154811061166257fe5b9060005260206000200154905092915050565b604051602001611684906120e6565b60405160208183030381529060405280519060200120826040516020016116ab9190612094565b60405160208183030381529060405280519060200120141561173857826002846040516116d89190612094565b908152602001604051809103902060000190805190602001906116fc929190611972565b508060028460405161170e9190612094565b90815260200160405180910390206001019080519060200190611732929190611972565b506117a5565b61174183610c0e565b1561175a5761174f83610c0e565b61175557fe5b6117a4565b6000839080600181540180825580915050906001820390600052602060002001600090919290919091509080519060200190611797929190611972565b50506117a382826111f2565b5b5b6117ae836111b5565b505050565b60608082905080915050919050565b60038280516020810182018051848252602083016020850120818352809550505050505081815481106117f157fe5b90600052602060002001600091509150508054600181600116156101000203166002900480601f0160208091040260200160405190810160405280929190818152602001828054600181600116156101000203166002900480156118965780601f1061186b57610100808354040283529160200191611896565b820191906000526020600020905b81548152906001019060200180831161187957829003601f168201915b505050505081565b6118a782610e08565b156118fa57806002836040516118bd9190612094565b908152602001604051809103902060020181905550806005836040516118e39190612094565b908152602001604051809103902081905550611922565b600060028360405161190c9190612094565b9081526020016040518091039020600201819055505b5050565b6006826040516119369190612094565b90815260200160405180910390208190806001815401808255809150509060018203906000526020600020016000909192909190915055505050565b828054600181600116156101000203166002900490600052602060002090601f016020900481019282601f106119b357805160ff19168380011785556119e1565b828001600101855582156119e1579182015b828111156119e05782518255916020019190600101906119c5565b5b5090506119ee9190611a8c565b5090565b604051806040016040528060608152602001600081525090565b828054600181600116156101000203166002900490600052602060002090601f016020900481019282601f10611a4d57805160ff1916838001178555611a7b565b82800160010185558215611a7b579182015b82811115611a7a578251825591602001919060010190611a5f565b5b509050611a889190611a8c565b5090565b611aae91905b80821115611aaa576000816000905550600101611a92565b5090565b90565b600081359050611ac08161254e565b92915050565b600082601f830112611ad757600080fd5b8135611aea611ae5826123d1565b6123a4565b91508082526020830160208301858383011115611b0657600080fd5b611b118382846124fb565b50505092915050565b600082601f830112611b2b57600080fd5b8135611b3e611b39826123fd565b6123a4565b91508082526020830160208301858383011115611b5a57600080fd5b611b658382846124fb565b50505092915050565b600081359050611b7d81612565565b92915050565b600060208284031215611b9557600080fd5b6000611ba384828501611ab1565b91505092915050565b600060208284031215611bbe57600080fd5b600082013567ffffffffffffffff811115611bd857600080fd5b611be484828501611ac6565b91505092915050565b600060208284031215611bff57600080fd5b600082013567ffffffffffffffff811115611c1957600080fd5b611c2584828501611b1a565b91505092915050565b60008060408385031215611c4157600080fd5b600083013567ffffffffffffffff811115611c5b57600080fd5b611c6785828601611b1a565b925050602083013567ffffffffffffffff811115611c8457600080fd5b611c9085828601611b1a565b9150509250929050565b600080600060608486031215611caf57600080fd5b600084013567ffffffffffffffff811115611cc957600080fd5b611cd586828701611b1a565b935050602084013567ffffffffffffffff811115611cf257600080fd5b611cfe86828701611b1a565b925050604084013567ffffffffffffffff811115611d1b57600080fd5b611d2786828701611b1a565b9150509250925092565b60008060408385031215611d4457600080fd5b600083013567ffffffffffffffff811115611d5e57600080fd5b611d6a85828601611b1a565b9250506020611d7b85828601611b6e565b9150509250929050565b60008060408385031215611d9857600080fd5b600083013567ffffffffffffffff811115611db257600080fd5b611dbe85828601611ac6565b9250506020611dcf85828601611b6e565b9150509250929050565b6000611de58383611f54565b905092915050565b6000611df882612448565b611e028185612481565b935083602082028501611e1485612429565b8060005b85811015611e505784840389528151611e318582611dd9565b9450611e3c83612474565b925060208a01995050600181019050611e18565b50829750879550505050505092915050565b611e6b816124db565b82525050565b611e7a816124e7565b82525050565b6000611e8b82612453565b611e958185612492565b9350611ea581856020860161250a565b611eae8161253d565b840191505092915050565b6000611ec482612453565b611ece81856124a3565b9350611ede81856020860161250a565b80840191505092915050565b6000611ef582612469565b611eff81856124bf565b9350611f0f81856020860161250a565b611f188161253d565b840191505092915050565b6000611f2e82612469565b611f3881856124d0565b9350611f4881856020860161250a565b80840191505092915050565b6000611f5f8261245e565b611f6981856124ae565b9350611f7981856020860161250a565b611f828161253d565b840191505092915050565b6000611f988261245e565b611fa281856124bf565b9350611fb281856020860161250a565b611fbb8161253d565b840191505092915050565b600081546001811660008114611fe357600181146120085761204c565b607f6002830416611ff481876124d0565b955060ff198316865280860193505061204c565b6002820461201681876124d0565b955061202185612436565b60005b8281101561204357815481890152600182019150602081019050612024565b82880195505050505b505092915050565b60006120616000836124d0565b9150600082019050919050565b612077816124f1565b82525050565b60006120898284611eb9565b915081905092915050565b60006120a08284611f23565b915081905092915050565b60006120b78285611f23565b91506120c38284611f23565b91508190509392505050565b60006120db8284611fc6565b915081905092915050565b60006120f182612054565b9150819050919050565b600060208201905081810360008301526121158184611ded565b905092915050565b60006020820190506121326000830184611e62565b92915050565b600060208201905061214d6000830184611e71565b92915050565b6000602082019050818103600083015261216d8184611e80565b905092915050565b6000602082019050818103600083015261218f8184611f8d565b905092915050565b600060208201905081810360008301526121b18184611eea565b905092915050565b600060408201905081810360008301526121d38185611eea565b90506121e2602083018461206e565b9392505050565b6000610100820190508181036000830152612204818b611f8d565b90508181036020830152612218818a611f8d565b9050818103604083015261222c8189611f8d565b905081810360608301526122408188611f8d565b905061224f6080830187611e62565b61225c60a083018661206e565b61226960c083018561206e565b61227660e083018461206e565b9998505050505050505050565b6000608082019050818103600083015261229d8187611f8d565b905081810360208301526122b18186611f8d565b90506122c0604083018561206e565b6122cd6060830184611e62565b95945050505050565b600060408201905081810360008301526122f08185611f8d565b90506122ff602083018461206e565b9392505050565b600060208201905061231b600083018461206e565b92915050565b6000606082019050612336600083018661206e565b81810360208301526123488185611eea565b9050818103604083015261235c8184611ded565b9050949350505050565b600060608201905061237b600083018661206e565b818103602083015261238d8185611eea565b905061239c6040830184611e62565b949350505050565b6000604051905081810181811067ffffffffffffffff821117156123c757600080fd5b8060405250919050565b600067ffffffffffffffff8211156123e857600080fd5b601f19601f8301169050602081019050919050565b600067ffffffffffffffff82111561241457600080fd5b601f19601f8301169050602081019050919050565b6000602082019050919050565b60008160005260206000209050919050565b600081519050919050565b600081519050919050565b600081519050919050565b600081519050919050565b6000602082019050919050565b600082825260208201905092915050565b600082825260208201905092915050565b600081905092915050565b600082825260208201905092915050565b600082825260208201905092915050565b600081905092915050565b60008115159050919050565b6000819050919050565b6000819050919050565b82818337600083830152505050565b60005b8381101561252857808201518184015260208101905061250d565b83811115612537576000848401525b50505050565b6000601f19601f8301169050919050565b612557816124e7565b811461256257600080fd5b50565b61256e816124f1565b811461257957600080fd5b5056fea265627a7a72305820a1e7943085c88e7103720206807cec4f8355c37f992a7a53dc87c0e6710fa7366c6578706572696d656e74616cf50037",
  "source": "pragma solidity >=0.4.10 <0.7.0;\r\npragma experimental ABIEncoderV2;\r\n// import \"./Ownable.sol\";\r\n\r\n/// @title Data\r\n/// @author Noppawan Kulchol\r\n/// @dev This contract was created to stored data\r\n///      both stack overflow info and code snippet on blockchain.\r\ncontract Data {\r\n    \r\n    // event of adding a new answer to the question\r\n    event newAnswerAdded(string _url, string _newAnswerBody, string _newAnswerAuthor,\r\n    string _newAnswerEditor, uint _newAnswerCreationDate, uint _newAnswerLastModified,\r\n    uint _newAnswerLastActivity);\r\n\r\n    // event of adding the question's detail\r\n    event newDetailQuestionAdded(string _url, string _title, uint viewCount,\r\n    string _author, string _editor);\r\n\r\n    // event of adding the question's time\r\n    event newTimeQuestionAdded( uint _creationDate, uint _lastActivity,uint _lastModified);\r\n\r\n    // event of adding code snippet to url\r\n    // event newCodeSnippetAdded(string _url, string _date, string _language, string _projectName,\r\n    // string _companyName, string _projectPath, string _projectAuthor);\r\n\r\n    // uuid which was generated in code snippet\r\n    // uint public uuid = 0;\r\n    // array of stack overflow info\r\n    // StackOverflowInfo[] info;\r\n    // array of answer\r\n    // Answer[] answers;\r\n    string[] answerLink;\r\n    // map answer (struct) with url (string)\r\n    mapping (string => Answer) public getAnswers;\r\n\r\n    mapping (string => Question) public getQuestion;\r\n    mapping (string => string[]) public getAnswer;\r\n    // map code snippet (array of struct) with url (string)\r\n    // mapping (string => CodeSnippet[]) public getCodeSnippet;\r\n    // map stack overflow info (struct) with url (string)\r\n    // mapping (string => StackOverflowInfo) public getInfo;\r\n    //\r\n    mapping (string => Snippet[]) public getSnippet;\r\n    mapping (string => uint) public getUUIDFromQuestion;\r\n    mapping (string => uint[]) public getUUIDFromAnswer;\r\n\r\n    // mapping (string => address) public addressQuestioner;\r\n    // address private _owner;\r\n\r\n    // This is a struct of stack overflow info\r\n    struct Question {\r\n        string url;\r\n        string data;\r\n        uint uuidFromSnippet;\r\n        bool isValue;\r\n    }\r\n\r\n    // This is a struct of code snippet\r\n    struct Snippet {\r\n        string data;\r\n        uint uuid;\r\n    }\r\n\r\n    // This is a struct of answer of each question\r\n    struct Answer {\r\n        string url;\r\n        string answerBody;\r\n        string answerAuthor;\r\n        string answerEditor;\r\n        bool isValue;\r\n        uint answerCreationDate;\r\n        uint answerLastModified;\r\n        uint answerLastActivity;\r\n    }\r\n\r\n    struct NewAnswer {\r\n        string url;\r\n        string data;\r\n    }\r\n\r\n    // constructor() internal {\r\n    //     _owner = msg.sender;\r\n    // }\r\n\r\n    function createNewQuestion(string memory _url,string memory _link, string memory _data) public {\r\n        // if _link equal to \"\", it is a question\r\n        if( (keccak256(abi.encodePacked((_link))) == keccak256(abi.encodePacked((\"\")))) ){\r\n            getQuestion[_url].url = _url;\r\n            getQuestion[_url].data = _data;\r\n        } else{ // _link has value, it is a answer\r\n            if(hasAnswerLink(_url)){\r\n                assert(hasAnswerLink(_url));\r\n            }else{\r\n                answerLink.push(_url);\r\n                addAnswer(_link,_data);\r\n            }\r\n            \r\n        }\r\n        setValue(_url);\r\n    }\r\n\r\n    function addAnswer(string memory _url, string memory _data) public {\r\n        getAnswer[_url].push(_data);\r\n    }\r\n\r\n    function updateUUIDToQuestion(string memory _url, uint _id) private {\r\n        // check url in array and add uuid of code snippet in struct of stackoverflowInfo\r\n        if(contains(_url)){\r\n            getQuestion[_url].uuidFromSnippet = _id;\r\n            getUUIDFromQuestion[_url] = _id;\r\n        }\r\n        else{\r\n            // in case that have not generate uuid from snippet method yet.\r\n            getQuestion[_url].uuidFromSnippet = 0;\r\n        }\r\n    }\r\n\r\n    function updateUUIDToAnswer(string memory _url, uint _id) private {\r\n        getUUIDFromAnswer[_url].push(_id);\r\n    }\r\n\r\n    // duplicate!!!!!!!!!!\r\n    function createNewCodeSnippet(string memory _url, string memory _link, string memory _data) public {\r\n        // create new code snippet and generate uuid\r\n        // push new code snippet into map getCodeSnippet that link with _url\r\n        uint uuid = getUUID(appendString(_data,bytes32ToString(blockNumber())));\r\n        Snippet memory snippet = Snippet(_data,uuid);\r\n\r\n        if( (keccak256(abi.encodePacked((_link))) == keccak256(abi.encodePacked((\"\")))) ){\r\n            getSnippet[_url].push(snippet);\r\n            updateUUIDToQuestion(_url,uuid);\r\n        }else{\r\n            getSnippet[_link].push(snippet);\r\n            updateUUIDToAnswer(_link,uuid);\r\n        }\r\n\r\n        // // call event\r\n        // emit newCodeSnippetAdded(newCode.url, newCode.date, newCode.language, newCode.projectName,\r\n        // newCode.companyName, newCode.projectPath, newCode.projectAuthor);\r\n    }\r\n\r\n    function getIndexOfSnippet(string memory _url) public view returns (uint) {\r\n        return (getSnippet[_url].length);\r\n    }\r\n\r\n    function getIndexOfAnswer(string memory _url) public view returns (uint) {\r\n        return (getAnswer[_url].length);\r\n    }\r\n\r\n    function getDetailQuestion(string memory _url) public view returns (uint, string memory, bool){\r\n        return (getQuestion[_url].uuidFromSnippet,\r\n                getQuestion[_url].data,\r\n                getQuestion[_url].isValue);\r\n    }\r\n\r\n    function getDetailAnswer(string memory _url) public view returns (string[] memory){\r\n        return (getAnswer[_url]);\r\n    }\r\n\r\n    function getQAndA(string memory _url) public view returns (uint, string memory, string[] memory){\r\n        return (getQuestion[_url].uuidFromSnippet,\r\n                getQuestion[_url].data,\r\n                getAnswer[_url]);\r\n    }\r\n\r\n    function getDetailSnippet(string memory _url, uint _index) public view returns (string memory, uint){\r\n        // require((_index > getSnippet[_url].length) || (_index < 0),\"index out of bound\");\r\n        return (getSnippet[_url][_index].data,\r\n                getSnippet[_url][_index].uuid);\r\n    }\r\n\r\n    function getUUID(string memory s) public pure returns (uint){\r\n        bytes memory data = stringToBytes(s);\r\n       return uint(keccak256(abi.encodePacked(data)));\r\n    }\r\n\r\n    function getUUIDQuestion(string memory _url) public view returns (uint){\r\n        return getUUIDFromQuestion[_url];\r\n    }\r\n\r\n    function getUUIDAnswer(string memory _url, uint _index) public view returns (uint){\r\n        // require((_index > getUUIDFromAnswer[_url].length) || (_index < 0),\"index out of bound\");\r\n        return getUUIDFromAnswer[_url][_index];\r\n    }\r\n\r\n    function getUUIDSnippet(string memory _url, uint _index) public view returns (uint){\r\n        // require((_index > getSnippet[_url].length) || (_index < 0),\"index out of bound\");\r\n        return getSnippet[_url][_index].uuid;\r\n    }\r\n\r\n\r\n    function stringToBytes(string memory s) public pure returns (bytes memory){\r\n        bytes memory b = bytes(s);\r\n        return b;\r\n    }\r\n\r\n    function blockNumber() public view returns (bytes32) {\r\n        return bytes32(block.number);\r\n    }\r\n\r\n    function bytes32ToString (bytes32 data) public pure returns (string memory) {\r\n    bytes memory bytesString = new bytes(32);\r\n    for(uint j = 0; j < 32; j++){\r\n        byte char = byte(bytes32(uint(data) * 2 ** (8 * j)));\r\n        if (char != 0) {\r\n            bytesString[j] = char;\r\n        }\r\n    }\r\n    return string(bytesString);\r\n}\r\n\r\n    function setValue(string memory _url) public{\r\n        getQuestion[_url].isValue = true;\r\n    }\r\n\r\n    function contains(string memory _url) public view returns (bool){\r\n        return getQuestion[_url].isValue;\r\n    }\r\n\r\n    function appendString(string memory a, string memory b) public pure returns (string memory) {\r\n        return string(abi.encodePacked(a, b));\r\n    }\r\n\r\n    function hasAnswerLink(string memory _url) public view returns (bool){\r\n        bool check = false;\r\n        for( uint i = 0; i < answerLink.length; i++){\r\n            if( (keccak256(abi.encodePacked((answerLink[i]))) == keccak256(abi.encodePacked((_url)))) ){\r\n                check = true;\r\n                break;\r\n            }\r\n        }\r\n        return check;\r\n    }\r\n\r\n\r\n   // function getDetailCodeSnippet(string memory url) public view returns (CodeSnippet[] memory snippet){\r\n    //     CodeSnippet[] memory code = new CodeSnippet[](getCodeSnippet[url].length);\r\n    //     uint count = 0;\r\n    //     for (uint i = 0; i < getCodeSnippet[url].length; i++) {\r\n    //         code[count] = getCodeSnippet[url][i];\r\n    //         count++;\r\n    //     }\r\n    //     return (code);\r\n    // }\r\n\r\n    // function owner() public view returns(address) {\r\n    //     return _owner;\r\n    // }\r\n\r\n    // function isOwner() public view returns(bool) {\r\n    //     return msg.sender == _owner;\r\n    // }\r\n\r\n    // modifier onlyOwner() {\r\n    //     require(isOwner());\r\n    //     _;\r\n    // }\r\n\r\n}",
  "sourcePath": "C:/Users/asus/Desktop/AnswerNotification/contracts/Data.sol",
  "compiler": {
    "name": "solc",
    "version": "0.5.8+commit.23d335f2.Emscripten.clang"
  },
  "schemaVersion": "3.0.10",
  "updatedAt": "2019-07-19T05:16:26.887Z",
  "devdoc": {
    "methods": {}
  },
  "userdoc": {
    "methods": {},
    "notice": "both stack overflow info and code snippet on blockchain."
  }
}