{
  "contractName": "Data",
  "abi": [
    {
      "constant": true,
      "inputs": [
        {
          "name": "",
          "type": "string"
        },
        {
          "name": "",
          "type": "uint256"
        }
      ],
      "name": "getUUIDFromAnswer",
      "outputs": [
        {
          "name": "",
          "type": "uint256"
        }
      ],
      "payable": false,
      "stateMutability": "view",
      "type": "function"
    },
    {
      "constant": true,
      "inputs": [
        {
          "name": "",
          "type": "string"
        },
        {
          "name": "",
          "type": "uint256"
        }
      ],
      "name": "getSnippet",
      "outputs": [
        {
          "name": "data",
          "type": "string"
        },
        {
          "name": "uuid",
          "type": "uint256"
        }
      ],
      "payable": false,
      "stateMutability": "view",
      "type": "function"
    },
    {
      "constant": true,
      "inputs": [
        {
          "name": "",
          "type": "string"
        },
        {
          "name": "",
          "type": "uint256"
        }
      ],
      "name": "getOneAnswer",
      "outputs": [
        {
          "name": "",
          "type": "string"
        }
      ],
      "payable": false,
      "stateMutability": "view",
      "type": "function"
    },
    {
      "constant": true,
      "inputs": [
        {
          "name": "",
          "type": "string"
        }
      ],
      "name": "getUUIDFromQuestion",
      "outputs": [
        {
          "name": "",
          "type": "uint256"
        }
      ],
      "payable": false,
      "stateMutability": "view",
      "type": "function"
    },
    {
      "constant": true,
      "inputs": [
        {
          "name": "",
          "type": "string"
        }
      ],
      "name": "getQuestion",
      "outputs": [
        {
          "name": "url",
          "type": "string"
        },
        {
          "name": "data",
          "type": "string"
        },
        {
          "name": "uuidFromSnippet",
          "type": "uint256"
        },
        {
          "name": "isValue",
          "type": "bool"
        }
      ],
      "payable": false,
      "stateMutability": "view",
      "type": "function"
    },
    {
      "constant": true,
      "inputs": [
        {
          "name": "",
          "type": "string"
        },
        {
          "name": "",
          "type": "uint256"
        }
      ],
      "name": "getAnswer",
      "outputs": [
        {
          "name": "",
          "type": "string"
        }
      ],
      "payable": false,
      "stateMutability": "view",
      "type": "function"
    },
    {
      "constant": false,
      "inputs": [
        {
          "name": "_url",
          "type": "string"
        },
        {
          "name": "_link",
          "type": "string"
        },
        {
          "name": "_data",
          "type": "string"
        }
      ],
      "name": "createNewQuestion",
      "outputs": [],
      "payable": false,
      "stateMutability": "nonpayable",
      "type": "function"
    },
    {
      "constant": false,
      "inputs": [
        {
          "name": "_url",
          "type": "string"
        },
        {
          "name": "_data",
          "type": "string"
        }
      ],
      "name": "addAnswer",
      "outputs": [],
      "payable": false,
      "stateMutability": "nonpayable",
      "type": "function"
    },
    {
      "constant": false,
      "inputs": [
        {
          "name": "_url",
          "type": "string"
        },
        {
          "name": "_link",
          "type": "string"
        },
        {
          "name": "_data",
          "type": "string"
        }
      ],
      "name": "createNewCodeSnippet",
      "outputs": [],
      "payable": false,
      "stateMutability": "nonpayable",
      "type": "function"
    },
    {
      "constant": true,
      "inputs": [
        {
          "name": "_url",
          "type": "string"
        }
      ],
      "name": "getIndexOfSnippet",
      "outputs": [
        {
          "name": "",
          "type": "uint256"
        }
      ],
      "payable": false,
      "stateMutability": "view",
      "type": "function"
    },
    {
      "constant": true,
      "inputs": [
        {
          "name": "_url",
          "type": "string"
        }
      ],
      "name": "getIndexOfAnswerFromQuestionLink",
      "outputs": [
        {
          "name": "",
          "type": "uint256"
        }
      ],
      "payable": false,
      "stateMutability": "view",
      "type": "function"
    },
    {
      "constant": true,
      "inputs": [
        {
          "name": "_url",
          "type": "string"
        }
      ],
      "name": "getDetailQuestion",
      "outputs": [
        {
          "name": "",
          "type": "uint256"
        },
        {
          "name": "",
          "type": "string"
        },
        {
          "name": "",
          "type": "bool"
        }
      ],
      "payable": false,
      "stateMutability": "view",
      "type": "function"
    },
    {
      "constant": true,
      "inputs": [
        {
          "name": "_url",
          "type": "string"
        }
      ],
      "name": "getAnswerFromAnswerLink",
      "outputs": [
        {
          "name": "",
          "type": "string[]"
        }
      ],
      "payable": false,
      "stateMutability": "view",
      "type": "function"
    },
    {
      "constant": true,
      "inputs": [
        {
          "name": "_url",
          "type": "string"
        }
      ],
      "name": "getAnswerFromQuestionLink",
      "outputs": [
        {
          "name": "",
          "type": "string[]"
        }
      ],
      "payable": false,
      "stateMutability": "view",
      "type": "function"
    },
    {
      "constant": true,
      "inputs": [
        {
          "name": "_url",
          "type": "string"
        }
      ],
      "name": "getDetailAnswer",
      "outputs": [
        {
          "name": "",
          "type": "string[]"
        }
      ],
      "payable": false,
      "stateMutability": "view",
      "type": "function"
    },
    {
      "constant": true,
      "inputs": [
        {
          "name": "_url",
          "type": "string"
        }
      ],
      "name": "getQAndA",
      "outputs": [
        {
          "name": "",
          "type": "uint256"
        },
        {
          "name": "",
          "type": "string"
        },
        {
          "name": "",
          "type": "string[]"
        }
      ],
      "payable": false,
      "stateMutability": "view",
      "type": "function"
    },
    {
      "constant": true,
      "inputs": [
        {
          "name": "_url",
          "type": "string"
        },
        {
          "name": "_index",
          "type": "uint256"
        }
      ],
      "name": "getDetailSnippet",
      "outputs": [
        {
          "name": "",
          "type": "string"
        },
        {
          "name": "",
          "type": "uint256"
        }
      ],
      "payable": false,
      "stateMutability": "view",
      "type": "function"
    },
    {
      "constant": true,
      "inputs": [
        {
          "name": "s",
          "type": "string"
        }
      ],
      "name": "getUUID",
      "outputs": [
        {
          "name": "",
          "type": "uint256"
        }
      ],
      "payable": false,
      "stateMutability": "pure",
      "type": "function"
    },
    {
      "constant": true,
      "inputs": [
        {
          "name": "_url",
          "type": "string"
        }
      ],
      "name": "getUUIDQuestion",
      "outputs": [
        {
          "name": "",
          "type": "uint256"
        }
      ],
      "payable": false,
      "stateMutability": "view",
      "type": "function"
    },
    {
      "constant": true,
      "inputs": [
        {
          "name": "_url",
          "type": "string"
        },
        {
          "name": "_index",
          "type": "uint256"
        }
      ],
      "name": "getUUIDAnswer",
      "outputs": [
        {
          "name": "",
          "type": "uint256"
        }
      ],
      "payable": false,
      "stateMutability": "view",
      "type": "function"
    },
    {
      "constant": true,
      "inputs": [
        {
          "name": "_url",
          "type": "string"
        },
        {
          "name": "_index",
          "type": "uint256"
        }
      ],
      "name": "getUUIDSnippet",
      "outputs": [
        {
          "name": "",
          "type": "uint256"
        }
      ],
      "payable": false,
      "stateMutability": "view",
      "type": "function"
    },
    {
      "constant": true,
      "inputs": [
        {
          "name": "s",
          "type": "string"
        }
      ],
      "name": "stringToBytes",
      "outputs": [
        {
          "name": "",
          "type": "bytes"
        }
      ],
      "payable": false,
      "stateMutability": "pure",
      "type": "function"
    },
    {
      "constant": true,
      "inputs": [],
      "name": "blockNumber",
      "outputs": [
        {
          "name": "",
          "type": "bytes32"
        }
      ],
      "payable": false,
      "stateMutability": "view",
      "type": "function"
    },
    {
      "constant": true,
      "inputs": [
        {
          "name": "data",
          "type": "bytes32"
        }
      ],
      "name": "bytes32ToString",
      "outputs": [
        {
          "name": "",
          "type": "string"
        }
      ],
      "payable": false,
      "stateMutability": "pure",
      "type": "function"
    },
    {
      "constant": false,
      "inputs": [
        {
          "name": "_url",
          "type": "string"
        }
      ],
      "name": "setValue",
      "outputs": [],
      "payable": false,
      "stateMutability": "nonpayable",
      "type": "function"
    },
    {
      "constant": true,
      "inputs": [
        {
          "name": "_url",
          "type": "string"
        }
      ],
      "name": "contains",
      "outputs": [
        {
          "name": "",
          "type": "bool"
        }
      ],
      "payable": false,
      "stateMutability": "view",
      "type": "function"
    },
    {
      "constant": true,
      "inputs": [
        {
          "name": "a",
          "type": "string"
        },
        {
          "name": "b",
          "type": "string"
        }
      ],
      "name": "appendString",
      "outputs": [
        {
          "name": "",
          "type": "string"
        }
      ],
      "payable": false,
      "stateMutability": "pure",
      "type": "function"
    },
    {
      "constant": true,
      "inputs": [
        {
          "name": "_url",
          "type": "string"
        }
      ],
      "name": "hasAnswerLink",
      "outputs": [
        {
          "name": "",
          "type": "bool"
        }
      ],
      "payable": false,
      "stateMutability": "view",
      "type": "function"
    }
  ],
  "bytecode": "0x608060405234801561001057600080fd5b50612456806100206000396000f3fe608060405234801561001057600080fd5b50600436106101c45760003560e01c80638bec2be4116100f9578063c407604d11610097578063cdb400e911610071578063cdb400e914610604578063df24ea4514610634578063e106fb4b14610650578063e533a54e14610680576101c4565b8063c407604d14610571578063c68f7569146105a1578063ccb1c0a1146105d1576101c4565b8063a694939a116100d3578063a694939a146104d9578063b6f84355146104f5578063bf5c3a3114610525578063c35085fb14610541576101c4565b80638bec2be41461045d5780639201de551461048d57806393a09352146104bd576101c4565b80634f6c3847116101665780636833d54f116101405780636833d54f1461039b57806375fd7dd7146103cb5780637fb6bf39146103fb5780638591b4441461042b576101c4565b80634f6c38471461031c57806351c932731461034c57806357e871e71461037d576101c4565b80631efbacef116101a25780631efbacef146102595780632e7e107b1461028a5780632edeb680146102bc5780634b46b437146102ec576101c4565b80630b8a76ad146101c95780630bf2c0ae146101f95780631116a23a14610229575b600080fd5b6101e360048036036101de9190810190611cbf565b6106b0565b6040516101f091906121a6565b60405180910390f35b610213600480360361020e9190810190611b27565b6106f4565b6040516102209190612035565b60405180910390f35b610243600480360361023e9190810190611b27565b6107fb565b60405161025091906121a6565b60405180910390f35b610273600480360361026e9190810190611cbf565b610826565b604051610281929190612176565b60405180910390f35b6102a4600480360361029f9190810190611b27565b610912565b6040516102b3939291906121c1565b60405180910390f35b6102d660048036036102d19190810190611b27565b610a0c565b6040516102e39190612035565b60405180910390f35b61030660048036036103019190810190611b27565b610b13565b6040516103139190612057565b60405180910390f35b61033660048036036103319190810190611cbf565b610bb7565b60405161034391906120af565b60405180910390f35b61036660048036036103619190810190611c6b565b610c93565b6040516103749291906120f3565b60405180910390f35b610385610db3565b6040516103929190612072565b60405180910390f35b6103b560048036036103b09190810190611b27565b610dbe565b6040516103c29190612057565b60405180910390f35b6103e560048036036103e09190810190611b27565b610df6565b6040516103f291906121a6565b60405180910390f35b61041560048036036104109190810190611ae6565b610e37565b60405161042291906121a6565b60405180910390f35b61044560048036036104409190810190611b27565b610e65565b60405161045493929190612206565b60405180910390f35b61047760048036036104729190810190611b27565b610f86565b6040516104849190612035565b60405180910390f35b6104a760048036036104a29190810190611abd565b610fb7565b6040516104b491906120d1565b60405180910390f35b6104d760048036036104d29190810190611b27565b611095565b005b6104f360048036036104ee9190810190611b68565b6110d1565b005b61050f600480360361050a9190810190611b27565b611130565b60405161051c91906121a6565b60405180910390f35b61053f600480360361053a9190810190611bd4565b611158565b005b61055b60048036036105569190810190611b68565b6112f7565b60405161056891906120d1565b60405180910390f35b61058b60048036036105869190810190611c6b565b611323565b60405161059891906121a6565b60405180910390f35b6105bb60048036036105b69190810190611b27565b611368565b6040516105c891906121a6565b60405180910390f35b6105eb60048036036105e69190810190611ae6565b611393565b6040516105fb9493929190612123565b60405180910390f35b61061e60048036036106199190810190611c6b565b611516565b60405161062b91906121a6565b60405180910390f35b61064e60048036036106499190810190611bd4565b611554565b005b61066a60048036036106659190810190611b27565b6116ed565b604051610677919061208d565b60405180910390f35b61069a60048036036106959190810190611cbf565b6116fc565b6040516106a791906120af565b60405180910390f35b60068280516020810182018051848252602083016020850120818352809550505050505081815481106106df57fe5b90600052602060002001600091509150505481565b60606002826040516107069190611fce565b9081526020016040518091039020805480602002602001604051908101604052809291908181526020016000905b828210156107f0578382906000526020600020018054600181600116156101000203166002900480601f0160208091040260200160405190810160405280929190818152602001828054600181600116156101000203166002900480156107dc5780601f106107b1576101008083540402835291602001916107dc565b820191906000526020600020905b8154815290600101906020018083116107bf57829003601f168201915b505050505081526020019060010190610734565b505050509050919050565b600060028260405161080d9190611fce565b9081526020016040518091039020805490509050919050565b600482805160208101820180518482526020830160208501208183528095505050505050818154811061085557fe5b906000526020600020906002020160009150915050806000018054600181600116156101000203166002900480601f0160208091040260200160405190810160405280929190818152602001828054600181600116156101000203166002900480156109025780601f106108d757610100808354040283529160200191610902565b820191906000526020600020905b8154815290600101906020018083116108e557829003601f168201915b5050505050908060010154905082565b60006060806001846040516109279190611fce565b9081526020016040518091039020600201546001856040516109499190611fce565b9081526020016040518091039020600101610963866106f4565b818054600181600116156101000203166002900480601f0160208091040260200160405190810160405280929190818152602001828054600181600116156101000203166002900480156109f85780601f106109cd576101008083540402835291602001916109f8565b820191906000526020600020905b8154815290600101906020018083116109db57829003601f168201915b505050505091509250925092509193909250565b6060600382604051610a1e9190611fce565b9081526020016040518091039020805480602002602001604051908101604052809291908181526020016000905b82821015610b08578382906000526020600020018054600181600116156101000203166002900480601f016020809104026020016040519081016040528092919081815260200182805460018160011615610100020316600290048015610af45780601f10610ac957610100808354040283529160200191610af4565b820191906000526020600020905b815481529060010190602001808311610ad757829003601f168201915b505050505081526020019060010190610a4c565b505050509050919050565b6000806000905060008090505b600080549050811015610bad5783604051602001610b3e9190611fce565b6040516020818303038152906040528051906020012060008281548110610b6157fe5b90600052602060002001604051602001610b7b9190612009565b604051602081830303815290604052805190602001201415610ba05760019150610bad565b8080600101915050610b20565b5080915050919050565b6003828051602081018201805184825260208301602085012081835280955050505050508181548110610be657fe5b90600052602060002001600091509150508054600181600116156101000203166002900480601f016020809104026020016040519081016040528092919081815260200182805460018160011615610100020316600290048015610c8b5780601f10610c6057610100808354040283529160200191610c8b565b820191906000526020600020905b815481529060010190602001808311610c6e57829003601f168201915b505050505081565b60606000600484604051610ca79190611fce565b90815260200160405180910390208381548110610cc057fe5b9060005260206000209060020201600001600485604051610ce19190611fce565b90815260200160405180910390208481548110610cfa57fe5b906000526020600020906002020160010154818054600181600116156101000203166002900480601f016020809104026020016040519081016040528092919081815260200182805460018160011615610100020316600290048015610da15780601f10610d7657610100808354040283529160200191610da1565b820191906000526020600020905b815481529060010190602001808311610d8457829003601f168201915b50505050509150915091509250929050565b60004360001b905090565b6000600182604051610dd09190611fce565b908152602001604051809103902060030160009054906101000a900460ff169050919050565b60006060610e03836116ed565b905080604051602001610e169190611fb7565b6040516020818303038152906040528051906020012060001c915050919050565b6005818051602081018201805184825260208301602085012081835280955050505050506000915090505481565b600060606000600184604051610e7b9190611fce565b908152602001604051809103902060020154600185604051610e9d9190611fce565b9081526020016040518091039020600101600186604051610ebe9190611fce565b908152602001604051809103902060030160009054906101000a900460ff16818054600181600116156101000203166002900480601f016020809104026020016040519081016040528092919081815260200182805460018160011615610100020316600290048015610f725780601f10610f4757610100808354040283529160200191610f72565b820191906000526020600020905b815481529060010190602001808311610f5557829003601f168201915b505050505091509250925092509193909250565b6060610f9182610b13565b15610fa657610f9f82610a0c565b9050610fb2565b610faf826106f4565b90505b919050565b60608060206040519080825280601f01601f191660200182016040528015610fee5781602001600182028038833980820191505090505b50905060008090505b602081101561108b5760008160080260020a8560001c0260001b9050600060f81b817effffffffffffffffffffffffffffffffffffffffffffffffffffffffffffff19161461107d578083838151811061104d57fe5b60200101907effffffffffffffffffffffffffffffffffffffffffffffffffffffffffffff1916908160001a9053505b508080600101915050610ff7565b5080915050919050565b600180826040516110a69190611fce565b908152602001604051809103902060030160006101000a81548160ff02191690831515021790555050565b6002826040516110e19190611fce565b908152602001604051809103902081908060018154018082558091505090600182039060005260206000200160009091929091909150908051906020019061112a9291906118ac565b50505050565b60006005826040516111429190611fce565b9081526020016040518091039020549050919050565b600061117b6111768361117161116c610db3565b610fb7565b6112f7565b610df6565b905061118561192c565b60405180604001604052808481526020018381525090506040516020016111ab90612020565b60405160208183030381529060405280519060200120846040516020016111d29190611fce565b604051602081830303815290604052805190602001201415611271576004856040516111fe9190611fce565b908152602001604051809103902081908060018154018082558091505090600182039060005260206000209060020201600090919290919091506000820151816000019080519060200190611254929190611946565b506020820151816001015550505061126c85836117d8565b6112f0565b6004846040516112819190611fce565b9081526020016040518091039020819080600181540180825580915050906001820390600052602060002090600202016000909192909190915060008201518160000190805190602001906112d7929190611946565b50602082015181600101555050506112ef8483611860565b5b5050505050565b6060828260405160200161130c929190611fe5565b604051602081830303815290604052905092915050565b60006004836040516113359190611fce565b9081526020016040518091039020828154811061134e57fe5b906000526020600020906002020160010154905092915050565b600060048260405161137a9190611fce565b9081526020016040518091039020805490509050919050565b600181805160208101820180518482526020830160208501208183528095505050505050600091509050806000018054600181600116156101000203166002900480601f0160208091040260200160405190810160405280929190818152602001828054600181600116156101000203166002900480156114555780601f1061142a57610100808354040283529160200191611455565b820191906000526020600020905b81548152906001019060200180831161143857829003601f168201915b505050505090806001018054600181600116156101000203166002900480601f0160208091040260200160405190810160405280929190818152602001828054600181600116156101000203166002900480156114f35780601f106114c8576101008083540402835291602001916114f3565b820191906000526020600020905b8154815290600101906020018083116114d657829003601f168201915b5050505050908060020154908060030160009054906101000a900460ff16905084565b60006006836040516115289190611fce565b9081526020016040518091039020828154811061154157fe5b9060005260206000200154905092915050565b60405160200161156390612020565b604051602081830303815290604052805190602001208260405160200161158a9190611fce565b60405160208183030381529060405280519060200120141561161757826001846040516115b79190611fce565b908152602001604051809103902060000190805190602001906115db9291906118ac565b50806001846040516115ed9190611fce565b908152602001604051809103902060010190805190602001906116119291906118ac565b506116df565b61162083610b13565b156116395761162e83610b13565b61163457fe5b6116de565b60008390806001815401808255809150509060018203906000526020600020016000909192909190915090805190602001906116769291906118ac565b50506003836040516116889190611fce565b90815260200160405180910390208190806001815401808255809150509060018203906000526020600020016000909192909190915090805190602001906116d19291906118ac565b50506116dd82826110d1565b5b5b6116e883611095565b505050565b60608082905080915050919050565b600282805160208101820180518482526020830160208501208183528095505050505050818154811061172b57fe5b90600052602060002001600091509150508054600181600116156101000203166002900480601f0160208091040260200160405190810160405280929190818152602001828054600181600116156101000203166002900480156117d05780601f106117a5576101008083540402835291602001916117d0565b820191906000526020600020905b8154815290600101906020018083116117b357829003601f168201915b505050505081565b6117e182610dbe565b1561183457806001836040516117f79190611fce565b9081526020016040518091039020600201819055508060058360405161181d9190611fce565b90815260200160405180910390208190555061185c565b60006001836040516118469190611fce565b9081526020016040518091039020600201819055505b5050565b6006826040516118709190611fce565b90815260200160405180910390208190806001815401808255809150509060018203906000526020600020016000909192909190915055505050565b828054600181600116156101000203166002900490600052602060002090601f016020900481019282601f106118ed57805160ff191683800117855561191b565b8280016001018555821561191b579182015b8281111561191a5782518255916020019190600101906118ff565b5b50905061192891906119c6565b5090565b604051806040016040528060608152602001600081525090565b828054600181600116156101000203166002900490600052602060002090601f016020900481019282601f1061198757805160ff19168380011785556119b5565b828001600101855582156119b5579182015b828111156119b4578251825591602001919060010190611999565b5b5090506119c291906119c6565b5090565b6119e891905b808211156119e45760008160009055506001016119cc565b5090565b90565b6000813590506119fa816123ee565b92915050565b600082601f830112611a1157600080fd5b8135611a24611a1f82612271565b612244565b91508082526020830160208301858383011115611a4057600080fd5b611a4b83828461239b565b50505092915050565b600082601f830112611a6557600080fd5b8135611a78611a738261229d565b612244565b91508082526020830160208301858383011115611a9457600080fd5b611a9f83828461239b565b50505092915050565b600081359050611ab781612405565b92915050565b600060208284031215611acf57600080fd5b6000611add848285016119eb565b91505092915050565b600060208284031215611af857600080fd5b600082013567ffffffffffffffff811115611b1257600080fd5b611b1e84828501611a00565b91505092915050565b600060208284031215611b3957600080fd5b600082013567ffffffffffffffff811115611b5357600080fd5b611b5f84828501611a54565b91505092915050565b60008060408385031215611b7b57600080fd5b600083013567ffffffffffffffff811115611b9557600080fd5b611ba185828601611a54565b925050602083013567ffffffffffffffff811115611bbe57600080fd5b611bca85828601611a54565b9150509250929050565b600080600060608486031215611be957600080fd5b600084013567ffffffffffffffff811115611c0357600080fd5b611c0f86828701611a54565b935050602084013567ffffffffffffffff811115611c2c57600080fd5b611c3886828701611a54565b925050604084013567ffffffffffffffff811115611c5557600080fd5b611c6186828701611a54565b9150509250925092565b60008060408385031215611c7e57600080fd5b600083013567ffffffffffffffff811115611c9857600080fd5b611ca485828601611a54565b9250506020611cb585828601611aa8565b9150509250929050565b60008060408385031215611cd257600080fd5b600083013567ffffffffffffffff811115611cec57600080fd5b611cf885828601611a00565b9250506020611d0985828601611aa8565b9150509250929050565b6000611d1f8383611e8e565b905092915050565b6000611d32826122e8565b611d3c8185612321565b935083602082028501611d4e856122c9565b8060005b85811015611d8a5784840389528151611d6b8582611d13565b9450611d7683612314565b925060208a01995050600181019050611d52565b50829750879550505050505092915050565b611da58161237b565b82525050565b611db481612387565b82525050565b6000611dc5826122f3565b611dcf8185612332565b9350611ddf8185602086016123aa565b611de8816123dd565b840191505092915050565b6000611dfe826122f3565b611e088185612343565b9350611e188185602086016123aa565b80840191505092915050565b6000611e2f82612309565b611e39818561235f565b9350611e498185602086016123aa565b611e52816123dd565b840191505092915050565b6000611e6882612309565b611e728185612370565b9350611e828185602086016123aa565b80840191505092915050565b6000611e99826122fe565b611ea3818561234e565b9350611eb38185602086016123aa565b611ebc816123dd565b840191505092915050565b6000611ed2826122fe565b611edc818561235f565b9350611eec8185602086016123aa565b611ef5816123dd565b840191505092915050565b600081546001811660008114611f1d5760018114611f4257611f86565b607f6002830416611f2e8187612370565b955060ff1983168652808601935050611f86565b60028204611f508187612370565b9550611f5b856122d6565b60005b82811015611f7d57815481890152600182019150602081019050611f5e565b82880195505050505b505092915050565b6000611f9b600083612370565b9150600082019050919050565b611fb181612391565b82525050565b6000611fc38284611df3565b915081905092915050565b6000611fda8284611e5d565b915081905092915050565b6000611ff18285611e5d565b9150611ffd8284611e5d565b91508190509392505050565b60006120158284611f00565b915081905092915050565b600061202b82611f8e565b9150819050919050565b6000602082019050818103600083015261204f8184611d27565b905092915050565b600060208201905061206c6000830184611d9c565b92915050565b60006020820190506120876000830184611dab565b92915050565b600060208201905081810360008301526120a78184611dba565b905092915050565b600060208201905081810360008301526120c98184611ec7565b905092915050565b600060208201905081810360008301526120eb8184611e24565b905092915050565b6000604082019050818103600083015261210d8185611e24565b905061211c6020830184611fa8565b9392505050565b6000608082019050818103600083015261213d8187611ec7565b905081810360208301526121518186611ec7565b90506121606040830185611fa8565b61216d6060830184611d9c565b95945050505050565b600060408201905081810360008301526121908185611ec7565b905061219f6020830184611fa8565b9392505050565b60006020820190506121bb6000830184611fa8565b92915050565b60006060820190506121d66000830186611fa8565b81810360208301526121e88185611e24565b905081810360408301526121fc8184611d27565b9050949350505050565b600060608201905061221b6000830186611fa8565b818103602083015261222d8185611e24565b905061223c6040830184611d9c565b949350505050565b6000604051905081810181811067ffffffffffffffff8211171561226757600080fd5b8060405250919050565b600067ffffffffffffffff82111561228857600080fd5b601f19601f8301169050602081019050919050565b600067ffffffffffffffff8211156122b457600080fd5b601f19601f8301169050602081019050919050565b6000602082019050919050565b60008160005260206000209050919050565b600081519050919050565b600081519050919050565b600081519050919050565b600081519050919050565b6000602082019050919050565b600082825260208201905092915050565b600082825260208201905092915050565b600081905092915050565b600082825260208201905092915050565b600082825260208201905092915050565b600081905092915050565b60008115159050919050565b6000819050919050565b6000819050919050565b82818337600083830152505050565b60005b838110156123c85780820151818401526020810190506123ad565b838111156123d7576000848401525b50505050565b6000601f19601f8301169050919050565b6123f781612387565b811461240257600080fd5b50565b61240e81612391565b811461241957600080fd5b5056fea265627a7a72305820b57e8fd2dcc3055abaa11e592fe2649470dd7e8f30c90c145a13903f58b459b76c6578706572696d656e74616cf50037",
  "source": "pragma solidity >=0.4.10 <0.7.0;\r\npragma experimental ABIEncoderV2;\r\n// import \"./Ownable.sol\";\r\n\r\n/// @title Data\r\n/// @author Noppawan Kulchol\r\n/// @dev This contract was created to stored data\r\n///      both stack overflow information and code snippet on blockchain.\r\ncontract Data {\r\n    \r\n    // event of adding a new answer to the question\r\n    // event newAnswerAdded(string _url, string _newAnswerBody, string _newAnswerAuthor,\r\n    // string _newAnswerEditor, uint _newAnswerCreationDate, uint _newAnswerLastModified,\r\n    // uint _newAnswerLastActivity);\r\n\r\n    // // event of adding the question's detail\r\n    // event newDetailQuestionAdded(string _url, string _title, uint viewCount,\r\n    // string _author, string _editor);\r\n\r\n    // // event of adding the question's time\r\n    // event newTimeQuestionAdded( uint _creationDate, uint _lastActivity,uint _lastModified);\r\n\r\n    // array that collect answer link\r\n    string[] answerLink;\r\n    // map question url to question data\r\n    mapping (string => Question) public getQuestion;\r\n    // map question url to answer\r\n    mapping (string => string[]) public getAnswer;\r\n    // map answer url to answer\r\n    mapping (string => string[]) public getOneAnswer;\r\n    // map code snippet url to code snippet data\r\n    mapping (string => Snippet[]) public getSnippet;\r\n    // map question url to question UUID\r\n    mapping (string => uint) public getUUIDFromQuestion;\r\n    // map answer url to answer UUID\r\n    mapping (string => uint[]) public getUUIDFromAnswer;\r\n\r\n    // This is a struct of question from stack overflow information\r\n    struct Question {\r\n        string url;\r\n        string data;\r\n        uint uuidFromSnippet;\r\n        bool isValue;\r\n    }\r\n\r\n    // This is a struct of code snippet\r\n    struct Snippet {\r\n        string data;\r\n        uint uuid;\r\n    }\r\n\r\n    // This is a struct of answer of each question\r\n    struct NewAnswer {\r\n        string url;\r\n        string data;\r\n    }\r\n\r\n    // constructor() internal {\r\n    //     _owner = msg.sender;\r\n    // }\r\n\r\n    ///@param _url url from csv file\r\n    ///@param _link question url (if url is an answer link)\r\n    ///@param _data detail of question\r\n    // create question and answer\r\n    function createNewQuestion(string memory _url,string memory _link, string memory _data) public {\r\n        // if _link equal to \"\", it is a question\r\n        if( (keccak256(abi.encodePacked((_link))) == keccak256(abi.encodePacked((\"\")))) ){\r\n            getQuestion[_url].url = _url;\r\n            getQuestion[_url].data = _data;\r\n        } else{ // _link has value, it is a answer\r\n            if(hasAnswerLink(_url)){\r\n                assert(hasAnswerLink(_url));\r\n            }else{\r\n                answerLink.push(_url);\r\n                // collect answer per question\r\n                getOneAnswer[_url].push(_data);\r\n                // collect all answer of each question\r\n                addAnswer(_link,_data);\r\n            }\r\n        }\r\n        setValue(_url);\r\n    }\r\n    ///@param _url questionlink of answer\r\n    ///@param _data data of question\r\n    // add answer of each question\r\n    function addAnswer(string memory _url, string memory _data) public {\r\n        getAnswer[_url].push(_data);\r\n    }\r\n    ///@param _url question url\r\n    ///@param _id UUID from code snippet\r\n    // update question UUID, which generate from code snippet\r\n    function updateUUIDToQuestion(string memory _url, uint _id) private {\r\n        // check url in array and add uuid of code snippet in struct of stackoverflowInfo\r\n        if(contains(_url)){\r\n            getQuestion[_url].uuidFromSnippet = _id;\r\n            getUUIDFromQuestion[_url] = _id;\r\n        }\r\n        else{\r\n            // in case that have not generate uuid from snippet method yet.\r\n            getQuestion[_url].uuidFromSnippet = 0;\r\n        }\r\n    }\r\n    ///@param _url question link of answer\r\n    ///@param _id UUID from code snippet\r\n    // update answer UUID, which generate from code snippet\r\n    function updateUUIDToAnswer(string memory _url, uint _id) private {\r\n        getUUIDFromAnswer[_url].push(_id);\r\n    }\r\n\r\n    ///@param _url url from csv file\r\n    ///@param _link question url (if url is an answer link)\r\n    ///@param _data data of code snippet\r\n    // create code snippet and generate UUID for question and answer\r\n    function createNewCodeSnippet(string memory _url, string memory _link, string memory _data) public {\r\n        // create new code snippet and generate uuid\r\n        // push new code snippet into map getCodeSnippet that link with _url\r\n        uint uuid = getUUID(appendString(_data,bytes32ToString(blockNumber())));\r\n        Snippet memory snippet = Snippet(_data,uuid);\r\n\r\n        if( (keccak256(abi.encodePacked((_link))) == keccak256(abi.encodePacked((\"\")))) ){\r\n            getSnippet[_url].push(snippet);\r\n            updateUUIDToQuestion(_url,uuid);\r\n        }else{\r\n            getSnippet[_link].push(snippet);\r\n            updateUUIDToAnswer(_link,uuid);\r\n        }\r\n\r\n        // // call event\r\n        // emit newCodeSnippetAdded(newCode.url, newCode.date, newCode.language, newCode.projectName,\r\n        // newCode.companyName, newCode.projectPath, newCode.projectAuthor);\r\n    }\r\n    \r\n    ///@param _url code snippet url\r\n    // get index of code snippet\r\n    function getIndexOfSnippet(string memory _url) public view returns (uint) {\r\n        return (getSnippet[_url].length);\r\n    }\r\n\r\n    ///@param _url question link of answer\r\n    // get index of answer\r\n    function getIndexOfAnswerFromQuestionLink(string memory _url) public view returns (uint) {\r\n        return (getAnswer[_url].length);\r\n    }\r\n\r\n    ///@param _url question url\r\n    // get detail of each question\r\n    function getDetailQuestion(string memory _url) public view returns (uint, string memory, bool){\r\n        return (getQuestion[_url].uuidFromSnippet,\r\n                getQuestion[_url].data,\r\n                getQuestion[_url].isValue);\r\n    }\r\n    \r\n    ///@param _url answer url\r\n    // get answer from each answer link\r\n    function getAnswerFromAnswerLink(string memory _url) public view returns (string[] memory){\r\n        return (getOneAnswer[_url]);\r\n    }\r\n    \r\n    ///@param _url question url\r\n    // get all answer from each question link\r\n    function getAnswerFromQuestionLink(string memory _url) public view returns (string[] memory){\r\n        return (getAnswer[_url]);\r\n    }\r\n\r\n    ///@param _url question url of answer or answer url\r\n    // can get answer per each question and all answer\r\n    function getDetailAnswer(string memory _url) public view returns (string[] memory){\r\n        if(hasAnswerLink(_url)){\r\n            return getAnswerFromAnswerLink(_url);\r\n        }else{\r\n            return getAnswerFromQuestionLink(_url);\r\n        }\r\n    }\r\n\r\n    ///@param _url question url\r\n    // get question and answer of this url\r\n    function getQAndA(string memory _url) public view returns (uint, string memory, string[] memory){\r\n        return (getQuestion[_url].uuidFromSnippet,\r\n                getQuestion[_url].data,\r\n                getAnswerFromQuestionLink(_url));\r\n    }\r\n    ///@param _url code snippet url\r\n    ///@param _index index of code snippet\r\n    // get detail of code snippet\r\n    function getDetailSnippet(string memory _url, uint _index) public view returns (string memory, uint){\r\n        // require((_index > getSnippet[_url].length) || (_index < 0),\"index out of bound\");\r\n        return (getSnippet[_url][_index].data,\r\n                getSnippet[_url][_index].uuid);\r\n    }\r\n\r\n    ///@param s code snippet data that will be changed to UUID\r\n    // generate UUID\r\n    function getUUID(string memory s) public pure returns (uint){\r\n        bytes memory data = stringToBytes(s);\r\n       return uint(keccak256(abi.encodePacked(data)));\r\n    }\r\n\r\n    ///@param _url question url\r\n    // get question UUID\r\n    function getUUIDQuestion(string memory _url) public view returns (uint){\r\n        return getUUIDFromQuestion[_url];\r\n    }\r\n\r\n    ///@param _url answer url\r\n    // get answer UUID\r\n    function getUUIDAnswer(string memory _url, uint _index) public view returns (uint){\r\n        // require((_index > getUUIDFromAnswer[_url].length) || (_index < 0),\"index out of bound\");\r\n        return getUUIDFromAnswer[_url][_index];\r\n    }\r\n\r\n    ///@param _url code snippet url\r\n    ///@param _index index of code snippet\r\n    // get code snippet UUID\r\n    function getUUIDSnippet(string memory _url, uint _index) public view returns (uint){\r\n        // require((_index > getSnippet[_url].length) || (_index < 0),\"index out of bound\");\r\n        return getSnippet[_url][_index].uuid;\r\n    }\r\n\r\n    ///@param s any string word, which you want to convert it to byte\r\n    // convert string to bytes\r\n    function stringToBytes(string memory s) public pure returns (bytes memory){\r\n        bytes memory b = bytes(s);\r\n        return b;\r\n    }\r\n\r\n    // convert block number to bytes\r\n    function blockNumber() public view returns (bytes32) {\r\n        return bytes32(block.number);\r\n    }\r\n\r\n    ///@param data any bytes32, which you want to convert it to string\r\n    // convert bytes32 to string\r\n    function bytes32ToString (bytes32 data) public pure returns (string memory) {\r\n        bytes memory bytesString = new bytes(32);\r\n        for(uint j = 0; j < 32; j++){\r\n            byte char = byte(bytes32(uint(data) * 2 ** (8 * j)));\r\n            if (char != 0) {\r\n                bytesString[j] = char;\r\n            }\r\n        }\r\n        return string(bytesString);\r\n    }\r\n\r\n    ///@param _url question url\r\n    // set status of question\r\n    function setValue(string memory _url) public{\r\n        getQuestion[_url].isValue = true;\r\n    }\r\n\r\n    ///@param _url question url\r\n    // check question contain in array\r\n    function contains(string memory _url) public view returns (bool){\r\n        return getQuestion[_url].isValue;\r\n    }\r\n\r\n    ///@param a first string\r\n    ///@param b second string\r\n    // append first and second string together\r\n    function appendString(string memory a, string memory b) public pure returns (string memory) {\r\n        return string(abi.encodePacked(a, b));\r\n    }\r\n\r\n    ///@param _url answer url\r\n    // check answer link contain in array\r\n    function hasAnswerLink(string memory _url) public view returns (bool){\r\n        bool check = false;\r\n        for( uint i = 0; i < answerLink.length; i++){\r\n            if( (keccak256(abi.encodePacked((answerLink[i]))) == keccak256(abi.encodePacked((_url)))) ){\r\n                check = true;\r\n                break;\r\n            }\r\n        }\r\n        return check;\r\n    }\r\n\r\n\r\n   // function getDetailCodeSnippet(string memory url) public view returns (CodeSnippet[] memory snippet){\r\n    //     CodeSnippet[] memory code = new CodeSnippet[](getCodeSnippet[url].length);\r\n    //     uint count = 0;\r\n    //     for (uint i = 0; i < getCodeSnippet[url].length; i++) {\r\n    //         code[count] = getCodeSnippet[url][i];\r\n    //         count++;\r\n    //     }\r\n    //     return (code);\r\n    // }\r\n\r\n    // function owner() public view returns(address) {\r\n    //     return _owner;\r\n    // }\r\n\r\n    // function isOwner() public view returns(bool) {\r\n    //     return msg.sender == _owner;\r\n    // }\r\n\r\n    // modifier onlyOwner() {\r\n    //     require(isOwner());\r\n    //     _;\r\n    // }\r\n\r\n}",
  "sourcePath": "C:/Users/asus/Desktop/AnswerNotification/contracts/Data.sol",
  "compiler": {
    "name": "solc",
    "version": "0.5.8+commit.23d335f2.Emscripten.clang"
  },
  "schemaVersion": "3.0.10",
  "updatedAt": "2019-07-26T07:47:06.536Z",
  "devdoc": {
    "methods": {
      "addAnswer(string,string)": {
        "params": {
          "_data": "data of question"
        }
      },
      "appendString(string,string)": {
        "params": {
          "b": "second string"
        }
      },
      "bytes32ToString(bytes32)": {
        "params": {
          "data": "any bytes32, which you want to convert it to string"
        }
      },
      "contains(string)": {
        "params": {
          "_url": "question url"
        }
      },
      "createNewCodeSnippet(string,string,string)": {
        "params": {
          "_data": "data of code snippet"
        }
      },
      "createNewQuestion(string,string,string)": {
        "params": {
          "_data": "detail of question"
        }
      },
      "getAnswerFromAnswerLink(string)": {
        "params": {
          "_url": "answer url"
        }
      },
      "getAnswerFromQuestionLink(string)": {
        "params": {
          "_url": "question url"
        }
      },
      "getDetailAnswer(string)": {
        "params": {
          "_url": "question url of answer or answer url"
        }
      },
      "getDetailQuestion(string)": {
        "params": {
          "_url": "question url"
        }
      },
      "getDetailSnippet(string,uint256)": {
        "params": {
          "_index": "index of code snippet"
        }
      },
      "getIndexOfAnswerFromQuestionLink(string)": {
        "params": {
          "_url": "question link of answer"
        }
      },
      "getIndexOfSnippet(string)": {
        "params": {
          "_url": "code snippet url"
        }
      },
      "getQAndA(string)": {
        "params": {
          "_url": "question url"
        }
      },
      "getUUID(string)": {
        "params": {
          "s": "code snippet data that will be changed to UUID"
        }
      },
      "getUUIDAnswer(string,uint256)": {
        "params": {
          "_url": "answer url"
        }
      },
      "getUUIDQuestion(string)": {
        "params": {
          "_url": "question url"
        }
      },
      "getUUIDSnippet(string,uint256)": {
        "params": {
          "_index": "index of code snippet"
        }
      },
      "hasAnswerLink(string)": {
        "params": {
          "_url": "answer url"
        }
      },
      "setValue(string)": {
        "params": {
          "_url": "question url"
        }
      },
      "stringToBytes(string)": {
        "params": {
          "s": "any string word, which you want to convert it to byte"
        }
      }
    }
  },
  "userdoc": {
    "methods": {},
    "notice": "both stack overflow information and code snippet on blockchain."
  }
}