{
  "contractName": "SimpleStorage",
  "abi": [
    {
      "constant": false,
      "inputs": [
        {
          "name": "x",
          "type": "uint256"
        }
      ],
      "name": "set",
      "outputs": [],
      "payable": false,
      "stateMutability": "nonpayable",
      "type": "function"
    },
    {
      "constant": true,
      "inputs": [],
      "name": "get",
      "outputs": [
        {
          "name": "",
          "type": "uint256"
        }
      ],
      "payable": false,
      "stateMutability": "view",
      "type": "function"
    },
    {
      "constant": true,
      "inputs": [
        {
          "name": "a",
          "type": "uint256"
        }
      ],
      "name": "add",
      "outputs": [
        {
          "name": "",
          "type": "uint256"
        }
      ],
      "payable": false,
      "stateMutability": "view",
      "type": "function"
    }
  ],
  "bytecode": "0x608060405234801561001057600080fd5b5061010d806100206000396000f3fe6080604052348015600f57600080fd5b5060043610603c5760003560e01c80631003e2d214604157806360fe47b11460805780636d4ce63c1460ab575b600080fd5b606a60048036036020811015605557600080fd5b810190808035906020019092919050505060c7565b6040518082815260200191505060405180910390f35b60a960048036036020811015609457600080fd5b810190808035906020019092919050505060ce565b005b60b160d8565b6040518082815260200191505060405180910390f35b6000919050565b8060008190555050565b6000805490509056fea165627a7a72305820136aecc6352f4bdff8a66b64aa8ffde7cda982902e53354fc5b448bb0f13a5040029",
  "source": "pragma solidity >=0.4.0 <0.7.0;\r\n\r\ncontract SimpleStorage {\r\n    uint storedData;\r\n\r\n    function set(uint x) public {\r\n        storedData = x;\r\n    }\r\n\r\n    function get() public view returns (uint) {\r\n        return storedData;\r\n    }\r\n\r\n    function add(uint a) public view returns (uint){\r\n        storedData + a;\r\n    }\r\n}",
  "sourcePath": "C:/Users/asus/Desktop/test init/contracts/SimpleStorage.sol",
  "compiler": {
    "name": "solc",
    "version": "0.5.8+commit.23d335f2.Emscripten.clang"
  },
  "schemaVersion": "3.0.10",
  "updatedAt": "2019-06-06T02:10:09.346Z",
  "devdoc": {
    "methods": {}
  },
  "userdoc": {
    "methods": {}
  }
}